:020000040000FA
:0408000007EF04F00A
:10080800128209ED04F0C2EF04F00600F3CF09F0FC
:10081800F4CF0AF09EA213EF04F015EF04F07CEF7A
:1008280004F09DA21AEF04F01CEF04F07CEF04F032
:10083800104A112A62EF04F0880E105C130E11584A
:10084800D8A029EF04F02BEF04F07BEF04F0010EA1
:100858000F6E8B948B908B82000E116E000E106EB3
:100868007BEF04F0E80E105C030E1158D8A03FEFA0
:1008780004F041EF04F07BEF04F0000E0F6E8B9252
:100888008B948B80000E116E000E106E7BEF04F0BF
:100898000D50105C0E501158D8A055EF04F057EFCA
:1008A80004F07BEF04F0020E0F6E8B908B928B841A
:1008B800000E116E000E106E7BEF04F00F50076EE5
:1008C800086A0850000AD8B46CEF04F07BEF04F013
:1008D8000750000AD8B44CEF04F0010AD8B436EF38
:1008E80004F0030AD8B420EF04F07BEF04F09E92E2
:1008F8009EAC81EF04F083EF04F09DEF04F09DAC13
:1009080088EF04F08AEF04F09DEF04F0C3CF01F004
:10091800C4CF02F0000E046E0A0E036EF0EC04F071
:10092800880E01240D6E130E02200E6EC3CF83FFB6
:100938009E9C0AC0F4FF09C0F3FF12921100F80E42
:100948009416000E956E000E826E000E836E03ECF8
:1009580005F0DAEC04F0F28CF28E1A0E0C6E5E0ED4
:100968000B6E6E0EE82EFED70B2EFCD70C2EFAD788
:1009780000D0C282B1EF04F007EF04F01E0EF66E4D
:100988000A0EF76E000EF86E0900F5CF0DF009009B
:10099800F5CF0EF00900F5CF0FF0116A106A12902A
:1009A8001292000EF86E0001A3EF04F0C150F00B94
:1009B8000A09C16EC30EC2169280CF0EC116C08E30
:1009C800C050C70B1009C06EC050F80B0609C06EA6
:1009D8009E9C9D8CC280120001500302F3CF05F04B
:1009E800F4CF06F001500402F35006260250030229
:1009F800F350062605C001F006C002F01200CA50E6
:100A0800FC0B0109CA6E480ECA12F90ECB6E9E92F3
:090A18009D82CA841200881302B9
:020000040020DA
:08000000FFFFFFFFFFFFFFFF00
:020000040030CA
:0E000000FF061F1EFF8081FF0FC00FE00F40A4
:00000001FF
