:020000040000FA
:0400000007EF00F016
:10000800128209ED00F0A1EF00F00600F3CF09F02D
:10001800F4CF0AF09EA213EF00F015EF00F07CEF8A
:1000280000F09DA21AEF00F01CEF00F07CEF00F04A
:10003800104A112A62EF00F0880E105C130E115856
:10004800D8A029EF00F02BEF00F07BEF00F0010EB5
:100058000F6E8B948B908B82000E116E000E106EBB
:100068007BEF00F0E80E105C030E1158D8A03FEFAC
:1000780000F041EF00F07BEF00F0000E0F6E8B9266
:100088008B948B80000E116E000E106E7BEF00F0CB
:100098000D50105C0E501158D8A055EF00F057EFD6
:1000A80000F07BEF00F0000E0F6E8B928B948B802C
:1000B800000E116E000E106E7BEF00F00F50076EF1
:1000C800086A0850000AD8B46CEF00F07BEF00F023
:1000D8000750000AD8B44CEF00F0010AD8B436EF44
:1000E80000F0030AD8B420EF00F07BEF00F09E92F6
:1000F8009EAC81EF00F083EF00F09BEF00F09DAC29
:1001080088EF00F08AEF00F09BEF00F0C3CF01F01A
:10011800C4CF02F0000E046E0A0E036EE5EC00F088
:10012800880E01240D6E130E02200E6E9E9C0AC0CE
:10013800F4FF09C0F3FF129211000C0EF66E020EC6
:10014800F76E000EF86E0900F5CF0DF00900F5CF37
:100158000EF00900F5CF0FF0116A106A1290129292
:10016800000EF86E0001B9EF00F0F80E9416F8ECE6
:1001780000F0CFEC00F0330E0C6EBB0E0B6EE00EF1
:10018800E82EFED70B2EFCD70C2EFAD7C282BFEF73
:1001980000F007EF00F0C150F00B0A09C16EC30E62
:1001A800C2169280CF0EC116C08EC050C70B100960
:1001B800C06EC050F80B0609C06E9E9C9D8CC28014
:1001C800120001500302F3CF05F0F4CF06F00150FE
:1001D8000402F350062602500302F350062605C017
:1001E80001F006C002F01200CA50FC0B0109CA6EE9
:1001F800CA50780B5009CA6EF90ECB6E9E929D823A
:07020800CA841200881302F2
:020000040020DA
:08000000FFFFFFFFFFFFFFFF00
:020000040030CA
:0E000000FF071F1FFF8385FF0FC00FE00F409B
:00000001FF
