:020000040000FA
:0400000007EF00F016
:0A0008007582D2ED10F05CEF11F0EC
:1010000000496E69742073756363657373210047CB
:10101000616D6520626567756E2100526573756C40
:10102000743A00252D3375733A252D33756D733A57
:10103000252D33757573000094840F0EC1129380B3
:101040009590000E816E000E826E000E836E15EC80
:101050000EF0010E096E010E56EC0FF0000E0001AD
:10106000E46F010EE425F66EF76A100EF722080011
:10107000F55098EC12F00001E42B0C0EE46543EF00
:1010800008F045EF08F031EF08F08C80660E696ECD
:10109000760E686EC10EE82EFED7682EFCD7692E3C
:1010A000FAD700F08C905EEC13F0010E096E010E81
:1010B00056EC0FF020EEEAF010EEC0F00F0EDBCF92
:1010C000E3FFE806FCE221EE20F010EED0F00F0E78
:1010D000DBCFE3FFE806FCE2C00E116E000E126EDD
:1010E000D0509EEC11F005C013F006C014F08AEC4D
:1010F00013F0D00E116E000E126EFC509EEC11F02B
:1011000005C013F006C014F08AEC13F0010E096E4E
:10111000010E56EC0FF0000E0001E56FC00EE52544
:10112000D96EDA6A000EDA22DF5098EC12F0000174
:10113000E52B0D0EE5659FEF08F0A1EF08F08EEFAF
:1011400008F0010E096E020E56EC0FF0000E0001C1
:10115000E66FD00EE625D96EDA6A000EDA22DF508D
:1011600098EC12F00001E62B0F0EE665BAEF08F0DE
:10117000BCEF08F0A9EF08F0D082D08081A0C3EFC7
:1011800008F0C5EF08F0BEEF08F05EEC13F0010EBA
:10119000096E010E56EC0FF0660E696E760E686EE3
:1011A000C10EE82EFED7682EFCD7692EFAD700F0C4
:1011B000C8EC13F0C2EC13F0000E816E000E826ECC
:1011C000000E836E81A0E7EF08F0E9EF08F0E2EF90
:1011D00008F0000E00018E6F000E8F6F000E906FF2
:1011E000000E916FCD80F28CF28E000EE76F0F0E25
:1011F000E725F66EF76A100EF7220800F55098EC16
:1012000012F00001E72B0A0EE76509EF09F00BEF7A
:1012100009F0F7EF08F0330E696EBB0E686EE00E52
:10122000E82EFED7682EFCD7692EFAD75EEC13F0B5
:10123000660E696E760E686EC10EE82EFED7682EB9
:10124000FCD7692EFAD700F0660E696E760E686ECE
:10125000C10EE82EFED7682EFCD7692EFAD700F013
:101260008C8000019A51D8B438EF09F03AEF09F0B8
:1012700031EF09F08EC00EF08FC00FF090C010F06B
:1012800091C011F0800E126E960E136E980E146EB1
:10129000000E156E80EC10F00EC098F00FC099F0A3
:1012A000800E096E960E0A6E980E0B6E000E0C6E76
:1012B0008EC005F08FC006F090C007F091C008F016
:1012C00018EC11F005C00EF006C00FF007C010F0CA
:1012D00008C011F0100E126E270E136E000E146E61
:1012E000000E156E80EC10F00EC096F00FC097F057
:1012F000800E096E960E0A6E980E0B6E000E0C6E26
:101300008EC005F08FC006F090C007F091C008F0C5
:1013100018EC11F005C0E0F006C0E1F007C0E2F003
:1013200008C0E3F0100E096E270E0A6E000E0B6E59
:10133000000E0C6EE0C005F0E1C006F0E2C007F060
:10134000E3C008F018EC11F005C00EF006C00FF075
:10135000000E116E0A0E106EDBEC11F00EC094F050
:101360000FC095F09C0E5E6E000E5F6E230E606ED9
:10137000100E616E98C062F099C063F096C064F080
:1013800097C065F094C066F095C067F046EC12F027
:10139000010E096E010E56EC0FF0000E0001E86F11
:1013A000060EE865D6EF09F0D8EF09F0DAEF09F09C
:1013B000E8EF09F01B0EE825F66EF76A100EF7222B
:1013C0000800F55098EC12F00001E82BD0EF09F07E
:1013D000010E096E020E56EC0FF0000E0001E96FCF
:1013E0000F0EE965F6EF09F0F8EF09F0FAEF09F0F2
:1013F00007EF0AF09C0EE925D96EDA6A000EDA22B0
:10140000DF5098EC12F00001E92BF0EF09F0990E93
:10141000696E310E686EA20EE82EFED7682EFCD7DC
:10142000692EFAD700D0660E696E760E686EC10E10
:10143000E82EFED7682EFCD7692EFAD700F08C90E4
:10144000000E00018E6F000E8F6F000E906F000E69
:10145000916F5EEC13F0000E00019A6FE2EF08F05E
:1014600007EF00F042C0D9FF43C0DAFFDECFF6FF3E
:10147000DDCFF7FF0800F550250AD8A442EF0AF0A7
:1014800044EF0AF0B9EF0BF042C0D9FF43C0DAFFD6
:10149000DE2A000EDD22000E6B6E000E6A6E6AC040
:1014A0006EF06BC06FF06C686D68000E536E000ECE
:1014B000526EA1EF0AF06E8042C0D9FF43C0DAFF3E
:1014C000DE2A000EDD22A1EF0AF06E825CEF0AF048
:1014D0006E845CEF0AF06E865CEF0AF06E885CEF5B
:1014E0000AF0000E536E010E526EA1EF0AF042C0D8
:1014F000D9FF43C0DAFFDECFF6FFDDCFF7FF0800EC
:10150000F550466E476A4750000AD8B48AEF0AF091
:1015100071EF0AF04650200AD8B46BEF0AF0030AC4
:10152000D8B46EEF0AF0080AD8B468EF0AF0060AD9
:10153000D8B45BEF0AF01D0AD8B465EF0AF071EF7A
:101540000AF052505310D8B4A8EF0AF0AAEF0AF0EC
:1015500077EF0AF06EA0AFEF0AF0B1EF0AF0B2EF4A
:101560000AF06E9242C0D9FF43C0DAFFDECFF6FF29
:10157000DDCFF7FF0800F5502A0AD8A4C2EF0AF021
:10158000C4EF0AF0EDEF0AF042C0D9FF43C0DAFF22
:10159000DE2A000EDD2244C0D9FF45C0DAFFDFCFCE
:1015A00046F0020EDE26DFCF47F0000EDD2246C0F9
:1015B000D9FF47C0DAFFDECF6AF0DDCF6BF06BBE3C
:1015C000E6EF0AF0E4EF0AF030EF0BF06E806A6CA1
:1015D0006B1ED8B06B2A30EF0BF042C0D9FF43C06E
:1015E000DAFFDECF0CF0DDCF0DF0D5EC0CF00CC047
:1015F0006AF00DC06BF004EF0BF042C0D9FF43C09E
:10160000DAFFDE2A000EDD22D00E466EFF0E476E98
:1016100042C0D9FF43C0DAFFDECFF6FFDDCFF7FFD0
:101620000800F550486E496A4650482647504922FE
:1016300049500AE10A0E485CD8A021EF0BF024EFD4
:101640000BF0010E25EF0BF0000E546E556A54504E
:101650005510D8A42EEF0BF030EF0BF0FDEF0AF091
:1016600042C0D9FF43C0DAFFDECFF6FFDDCFF7FF80
:101670000800F550750AD8A440EF0BF042EF0BF0CC
:1016800083EF0BF042C0D9FF43C0DAFFDE2A000E21
:10169000DD2244C0D9FF45C0DAFFDFCF46F0020E9D
:1016A000DE26DFCF47F0000EDD2246C0D9FF47C05F
:1016B000DAFFDECF48F0DDCF49F048C04AF049C03C
:1016C0004BF04C6A4D6A4E6A4F6A506A516A40C08C
:1016D00020F041C021F04AC022F04BC023F04CC0A2
:1016E00024F04DC025F04EC026F04FC027F050C06A
:1016F00028F051C029F0D5EC0BF020C040F021C0FB
:1017000041F0D4EF0BF042C0D9FF43C0DAFFDECF87
:10171000F6FFDDCFF7FF0800F550250AD8A493EFB8
:101720000BF095EF0BF0ACEF0BF042C0D9FF43C0CC
:10173000DAFFDE2A000EDD22000E066E250E056E93
:1017400040C007F041C008F0F1EC0EF0000E416E11
:10175000010E406ED4EF0BF042C0D9FF43C0DAFF58
:10176000DE2A000EDD22000E416E000E406ED4EF28
:101770000BF042C0D9FF43C0DAFFDECFF6FFDDCF6A
:10178000F7FF0800F550056E066A40C007F041C03B
:1017900008F0F1EC0EF042C0D9FF43C0DAFFDE2AB8
:1017A000000EDD22A6EF0BF012006DBEDAEF0BF09B
:1017B000DCEF0BF0DDEF0BF06E926DBEEAEF0BF09D
:1017C0006D5006E16C04D8B0E8EF0BF0EAEF0BF0D7
:1017D000F0EF0BF0000E336E010E326EF4EF0BF0F3
:1017E0006CC032F06DC033F06AC034F06BC035F0BD
:1017F00022C036F023C037F024C038F025C039F0BD
:1018000026C03AF027C03BF028C03CF029C03DF08C
:10181000000E3F6E1F0E3E6E000E01011F6F87EF20
:101820000CF03E06D8A03F06000E3E24D96E010EF5
:101830003F20DA6E36C005F037C006F038C007F03A
:1018400039C008F03AC009F03BC00AF03CC00BF0C8
:101850003DC00CF00A0E0D6E000E0E6E000E0F6EE7
:10186000000E106E000E116E000E126E000E136E42
:10187000000E146E89EC0EF005C02AF006C02BF0A5
:1018800007C02CF008C02DF009C02EF00AC02FF0C0
:101890000BC030F00CC031F02A50300FDF6E320632
:1018A000D8A033063406D8A0350636C005F037C0B8
:1018B00006F038C007F039C008F03AC009F03BC064
:1018C0000AF03CC00BF03DC00CF00A0E0D6E000E8D
:1018D0000E6E000E0F6E000E106E000E116E000EDA
:1018E000126E000E136E000E146E9DEC0DF005C00E
:1018F00036F006C037F007C038F008C039F009C02C
:101900003AF00AC03BF00BC03CF00CC03DF03E503A
:101910003F10D8B48EEF0CF090EF0CF0C0EF0CF04D
:1019200036503710381039103A103B103C103D102B
:10193000D8A49DEF0CF09FEF0CF011EF0CF033BE2C
:10194000ACEF0CF0335006E13204D8B0AAEF0CF043
:10195000ACEF0CF011EF0CF035BEB7EF0CF03550DA
:1019600008E13404D8A0B7EF0CF0B9EF0CF0C0EFE9
:101970000CF06EB2BEEF0CF0C0EF0CF011EF0CF0FB
:1019800020C015F021C016F0000E3E24176E010E87
:101990003F20186E34C019F035C01AF01FEC10F05B
:1019A00015C020F016C021F01200000E1A6E000EB5
:1019B000196E000E136E000E126EE1EF0CF00C4A61
:1019C0000D2A010E186E0CC0F6FF0DC0F7FF0800BF
:1019D000F550200AD8B4EFEF0CF0F1EF0CF00EEF59
:1019E0000DF0F70E0E6EFF0E0F6E0CC0F6FF0DC061
:1019F000F7FF0800F550106E116A0E5010260F50B8
:101A00001122115009E1050E105CD8A00AEF0DF06B
:101A10000CEF0DF00EEF0DF0000E186E18C014F064
:101A2000156A14501510D8A418EF0DF01AEF0DF028
:101A3000DFEF0CF024EF0DF0000E136E010E126EAE
:101A40000C4A0D2A59EF0DF00CC0F6FF0DC0F7FF40
:101A50000800F5500E6E0F6A0F50000AD8B433EF2D
:101A60000DF059EF0DF00E502B0AD8B420EF0DF009
:101A7000060AD8B41CEF0DF059EF0DF019C005F0AF
:101A80001AC006F0000E086E0A0E076E9DEC13F0E9
:101A90000CC0F6FF0DC0F7FF0800F550055E000E04
:101AA000065A300E0524196E000E06201A6E20EF1D
:101AB0000DF0D00E0E6EFF0E0F6E0CC0F6FF0DC0B7
:101AC000F7FF0800F550106E116A0E5010260F50E7
:101AD000112211500AE10A0E105CD8A072EF0DF02D
:101AE00075EF0DF0010E76EF0DF0000E166E176A11
:101AF00016501710D8A47FEF0DF081EF0DF03EEFD8
:101B00000DF012501310D8A488EF0DF08AEF0DF0ED
:101B100098EF0DF019C00EF01AC00FF00E1E0F1E38
:101B20000E4A0F2A0EC00CF00FC00DF09CEF0DF006
:101B300019C00CF01AC00DF0120020EE15F0070EBF
:101B4000DE6AE806FDE20D500E100F1010101110A5
:101B5000121013101410D8B4B0EF0DF0B2EF0DF056
:101B600004EF0EF0010E1D6EC0EF0DF0D8900D3693
:101B70000E360F36103611361236133614361D2A2D
:101B800014AEC5EF0DF0C7EF0DF0B6EF0DF0D89025
:101B9000153616361736183619361A361B361C36D1
:101BA0000D50055C0E5006580F500758105008583D
:101BB0001150095812500A5813500B5814500C5811
:101BC000D8A0E5EF0DF0E7EF0DF0F8EF0DF00D50B8
:101BD000055E0E50065A0F50075A1050085A115001
:101BE000095A12500A5A13500B5A14500C5A1580A5
:101BF000D890143213321232113210320F320E32A8
:101C00000D321D2EC7EF0DF015C005F016C006F001
:101C100017C007F018C008F019C009F01AC00AF080
:101C20001BC00BF01CC00CF01200000E826E000EE8
:101C3000836EFC0E94169592F00E9512CB0E0A6EE2
:101C4000EC0E096E840EE82EFED7092EFCD70A2E64
:101C5000FAD700D0CB0E0A6EEC0E096E840EE82E79
:101C6000FED7092EFCD70A2EFAD700D0660E0A6ED0
:101C7000760E096EC10EE82EFED7092EFCD70A2E6D
:101C8000FAD700F0060E0A6E130E096EAE0EE82E9D
:101C9000FED7092EFCD70A2EFAD7300EBFEC12F071
:101CA000410E096EEE0EE82EFED7092EFCD700D0AD
:101CB000300EBFEC12F0D60E00D000D0E82EFCD7CC
:101CC00000D0300EBFEC12F0280EBFEC12F00E0E5A
:101CD000BFEC12F0010EBFEC12F0060EBFEC12F0DA
:101CE000060E0A6E130E096EAE0EE82EFED7092EF2
:101CF000FCD70A2EFAD7000E736E000E726E010E1C
:101D0000716E060E0001FC6F0E0E746E280EFB6FD6
:101D100012000D500E100F10101011101210131091
:101D20001410D8B496EF0EF098EF0EF0E0EF0EF02E
:101D3000010E156EA6EF0EF0D8900D360E360F364A
:101D400010361136123613361436152A14AEABEF90
:101D50000EF0ADEF0EF09CEF0EF00D50055C0E5046
:101D600006580F5007581050085811500958125073
:101D70000A5813500B5814500C58D8A0C2EF0EF04C
:101D8000C4EF0EF0D4EF0EF00D50055E0E50065A63
:101D90000F50075A1050085A1150095A12500A5A37
:101DA00013500B5A14500C5AD8901432133212326A
:101DB000113210320F320E320D32152EADEF0EF001
:101DC00005C005F006C006F007C007F008C008F01F
:101DD00009C009F00AC00AF00BC00BF00CC00CF0EF
:101DE000120007500810D8B4F8EF0EF0FAEF0EF01A
:101DF00003EF0FF007500810D8A401EF0FF003EF26
:101E00000FF008EF0FF00550CCEC13F055EF0FF08A
:101E100020EE04F00750D9260850DA22DE50DE10FA
:101E2000D8B415EF0FF017EF0FF032EF0FF020EEF0
:101E300004F00750D9260850DA2210EE02F00750BD
:101E4000E1260850E222DE50E65CE650800A0D6E84
:101E5000DE50800A0D58D8B030EF0FF032EF0FF09F
:101E600055EF0FF020EE02F00750D9260850DA2285
:101E7000DECF09F0DDCF0AF007C0D9FF08C0DAFFD6
:101E8000DECF0BF0DDCF0CF009500B24D96E0A50D9
:101E90000C20DA6E05C0DFFF20EE02F00750D926D5
:101EA0000850DA22DE2A000EDD2212000B6E030E2D
:101EB0000B605DEF0FF05FEF0FF0BAEF0FF0200E49
:101EC000096465EF0FF067EF0FF069EF0FF0BAEFFD
:101ED0000FF00B04D8A46FEF0FF071EF0FF07DEF50
:101EE0000FF0100E096077EF0FF079EF0FF07DEF34
:101EF0000FF009040A6EA6EF0FF0020E0B18D8A41B
:101F000084EF0FF086EF0FF093EF0FF0100E0960E3
:101F10008CEF0FF08EEF0FF093EF0FF009503F0FA3
:101F20000A6EA6EF0FF00B04D8A499EF0FF09BEF09
:101F30000FF0BAEF0FF0100E0964A1EF0FF0A3EF4E
:101F40000FF0BAEF0FF009502F0F0A6E7250D8A49D
:101F5000ACEF0FF0AEEF0FF0B4EF0FF00A508009C6
:101F6000BFEC12F0B8EF0FF00A50800976EC13F0D6
:101F70000AC09BF0120001EF10F08C92060EE82EC2
:101F8000FED700D08C82060EE82EFED700D08C92B1
:101F9000060EE82EFED700D01EEF10F08C92030E36
:101FA000E82EFED700F08C82030EE82EFED700F05C
:101FB0008C92C80E00D0E82EFDD71EEF10F08C9248
:101FC000060EE82EFED700D08C82060EE82EFED735
:101FD00000D08C92060EE82EFED700D01EEF10F037
:101FE0008C92060EE82EFED700D08C82060EE82ECC
:101FF000FED700D08C92060EE82EFED700D01EEF42
:1020000010F07350056E066A0650000AD8B40BEF44
:1020100010F01EEF10F00550000AD8B4BDEF0FF01D
:10202000010AD8B4CEEF0FF0030AD8B4DFEF0FF0F7
:10203000010AD8B4F0EF0FF01EEF10F012006EA0FE
:1020400024EF10F026EF10F030EF10F017C00EF074
:1020500018C00FF015C010F016C011F0E6EC12F029
:102060001ABE35EF10F037EF10F03DEF10F019C049
:102070001EF01AC01FF041EF10F0000E1F6E000E90
:102080001E6E000E1D6E000E1C6E53EF10F0000E43
:10209000066E200E056E15C007F016C008F0F1ECB4
:1020A0000EF01C4A1D2A1E501C5C1D50800A1B6E1F
:1020B0001F50800A1B58D8A060EF10F062EF10F09C
:1020C00047EF10F06EB067EF10F069EF10F073EFAC
:1020D00010F017C00EF018C00FF015C010F016C0A9
:1020E00011F0E6EC12F017C005F018C006F043EC52
:1020F00013F01E500524156E1F500620166E120098
:10210000000E166E000E176E000E186E000E196E81
:102110001250131014101510D8B491EF10F093EF63
:1021200010F0C9EF10F0010E1A6E9DEF10F0D8906C
:1021300012361336143615361A2A15AEA2EF10F0E1
:10214000A4EF10F097EF10F0D89016361736183627
:10215000193612500E5C13500F5814501058155069
:102160001158D8A0B6EF10F0B8EF10F0C1EF10F092
:1021700012500E5E13500F5A1450105A1550115A27
:102180001680D89015321432133212321A2EA4EF60
:1021900010F016C00EF017C00FF018C010F019C0E4
:1021A00011F0120006009EA0D8EF10F0DAEF10F048
:1021B000EBEF10F09DA0DFEF10F0E1EF10F0EBEF90
:1021C00010F0000E00018E27000E8F23010E9023C9
:1021D000000E91239E909EA4F0EF10F0F2EF10F00D
:1021E00016EF11F09DA4F7EF10F0F9EF10F016EFD5
:1021F00011F0BE5000018E25016EBF508F21026E7E
:10220000000E9021036E000E9121046E800E0124B9
:102210008E6F3C0E02208F6F360E0320906FFE0EE5
:102220000420916F010E9A6FCD909E9475921100CB
:1022300009500A100B100C10D8B421EF11F023EF45
:1022400011F053EF11F0010E0D6E2DEF11F0D8903B
:1022500009360A360B360C360D2A0CAE32EF11F069
:1022600034EF11F027EF11F00950055C0A500658C1
:102270000B5007580C500858D8A041EF11F043EF0D
:1022800011F04BEF11F00950055E0A50065A0B5041
:10229000075A0C50085AD8900C320B320A320932C5
:1022A0000D2E34EF11F005C005F006C006F007C092
:1022B00007F008C008F01200740EF66E270EF76ED5
:1022C000000EF86E01EE20F010EE10F00900F5CFD0
:1022D000EEFFE550E150FAE1600EF66E270EF76E64
:1022E000000EF86E00EEEAF010EE14F00900F5CFE3
:1022F000EEFFE550E150FAE19A0EF66E270EF76E0A
:10230000000EF86E0900F5CF74F001EE00F0200E1B
:10231000EE6AE806FDE100EE80F0360EEE6AE806B1
:10232000FDE100EE6AF00A0EEE6AE806FDE1759046
:102330007592000EF86E00011CEF08F0096E000E99
:102340000C6E0C500708076E010E086E072AABEFE3
:1023500011F0D8900836072EA9EF11F00850091493
:102360000009D8A4B6EF11F0B8EF11F0BEEF11F0EC
:10237000000E0B6E300E0A6EC2EF11F0000E0B6EE7
:10238000310E0A6EAD0E0C24D96EDA6A000EDA2216
:102390000AC0DFFF0C2A070E0C64D1EF11F0D3EF57
:1023A00011F0A1EF11F0000E0001B56FAD0E056E3A
:1023B000000E066E1200000E136E000E126E10500C
:1023C0001110D8B4E6EF11F0E8EF11F010EF12F0B1
:1023D000010E146EF0EF11F0D89010361136142A59
:1023E00011AEF5EF11F0F7EF11F0ECEF11F0D8901E
:1023F0001236133610500E5C11500F58D8A003EF50
:1024000012F005EF12F00AEF12F010500E5E1150AC
:102410000F5A1280D89011321032142EF7EF11F0AB
:1024200012C00EF013C00FF0120058C05CF059C07B
:102430005DF0000E0001936F000E926F33EF12F00B
:1024400056C040F057C041F05C0E426E000E436E25
:102450005AC044F05BC045F032EC0AF04050000135
:102460009227415093235CC0F6FF5DC0F7FF080040
:10247000F5500009D8A43FEF12F041EF12F020EF21
:1024800012F092C056F093C057F01200620E000195
:10249000B86F000EB96F5EC0BAF05FC0BBF0000E3F
:1024A000BD6F000EBC6F000EBF6F000EBE6FBA0E88
:1024B000566E000E576E60C058F061C059F0B80EED
:1024C0005A6E000E5B6E15EC12F00001BC515E24DA
:1024D000D96EBD515F20DA6E000EDF6E1200010E64
:1024E0000B6E200E05180610D8B479EF12F07BEFB2
:1024F00012F094EF12F0F70E076EFF0E086E05C093
:1025000009F006C00AF00750092608500A220A50AE
:1025100009E1050E095CD8A090EF12F092EF12F0DD
:1025200094EF12F0000E0B6E0BC005F0066A12005D
:10253000086EFC0E941695920F0E95168B808B925A
:1025400008C007F0F00E071683500F0B0710836EBC
:10255000BBEC0FF008C007F0073AF00E0716F00EBC
:10256000071683500F0B0710836EBBEC0FF0820E23
:10257000076EDE0EE82EFED7072EFCD71200086E7F
:10258000FC0E941695920F0E95168B908B9208C0A8
:1025900007F0F00E071683500F0B0710836EBBEC8D
:1025A0000FF008C007F0073AF00E0716F00E0716F6
:1025B00083500F0B0710836EBBEC0FF0820E076E7B
:1025C000DE0EE82EFED7072EFCD71200000E146E8A
:1025D000000E136EF7EF12F012C005F0066A10C07D
:1025E00007F011C008F0F1EC0EF0134A142A135052
:1025F0000E24D96E14500F20DA6EDF50126E125076
:10260000D8A405EF13F007EF13F0ECEF12F012006F
:102610000BC00DF00CC00EF009C00FF00AC010F096
:102620000DC0D9FF0EC0DAFF0D4A0E2A0FC0E1FF20
:1026300010C0E2FF0F4A102ADFCFE7FFE750D8A40F
:1026400024EF13F026EF13F010EF13F01200D00E6A
:10265000076EFF0E086E05C009F006C00AF00750AD
:10266000092608500A220A500AE10A0E095CD8A07D
:102670003CEF13F03FEF13F0010E40EF13F0000EAC
:10268000056E066A120005C007F006C008F04BEFA1
:1026900013F0054A062A05C0D9FF06C0DAFFDF504D
:1026A000D8A455EF13F057EF13F049EF13F007508C
:1026B000055C056E08500658066E12007250D8A4CC
:1026C00064EF13F066EF13F06BEF13F0010EBFEC45
:1026D00012F06EEF13F0010E76EC13F0820E096E1D
:1026E000DE0EE82EFED7092EFCD71200086EFC0E77
:1026F00094169592000E956E8B908B9208C083FF76
:10270000BBEC0FF0820E076EDE0EE82EFED7072E12
:10271000FCD7120011C005F012C006F043EC13F014
:1027200005501124096E065012200A6E13C00BF0DA
:1027300014C00CF008EC13F0120005500702F3CFA0
:1027400009F0F4CF0AF005500802F3500A260650AB
:102750000702F3500A2609C005F00AC006F012006D
:1027600052434F4E3A2000000000000000000000DD
:102770000130060153544B5054523A2000000000DF
:1027800000000000050EBD6EB70EB1169D8412004C
:0B279000800ECD6E9D8012001200082C
:020000040020DA
:08000000FFFFFFFFFFFFFFFF00
:020000040030CA
:0E000000FF061F1EFF8181FF0FC00FE00F40A3
:00000001FF
