:020000040000FA
:0408000007EF04F00A
:100808001582F5ED04F033EF05F094900F0EC11248
:100818009368000E816EFF0E116E106850EC05F0A3
:1008280067EC05F0F28CF28E010E146E1450D8B4F9
:1008380020EF04F022EF04F01AEF04F081A027EF74
:1008480004F029EF04F02DEF04F0000E036EC2EF60
:1008580004F081A232EF04F034EF04F038EF04F032
:10086800010E036EC2EF04F081A43DEF04F03FEFE8
:1008780004F043EF04F0020E036EC2EF04F081A609
:1008880048EF04F04AEF04F04EEF04F0030E036E55
:10089800C2EF04F081A853EF04F055EF04F059EFCC
:1008A80004F0040E036EC2EF04F081AA5EEF04F0B8
:1008B80060EF04F064EF04F0050E036EC2EF04F07D
:1008C80081AC69EF04F06BEF04F06FEF04F0060EF3
:1008D800036EC2EF04F081AE74EF04F076EF04F01B
:1008E8007AEF04F0070E036EC2EF04F0C2EF04F0D3
:1008F800C60E026E3A0E016E020E086EBE68BF6822
:10090800EFEF04F0630E026E1D0E016E010E086E0D
:1009180082EF04F0B10E026E8E0E016E000E086EAC
:1009280001C0BEFF02C0BFFFEFEF04F0580E026E19
:10093800C50E016E000E086E94EF04F02C0E026EC8
:10094800490E016E000E086E94EF04F0160E026E4A
:10095800230E016E000E086E94EF04F00B0E026E6B
:100968001B0E016E000E086E94EF04F0050E026E69
:100978008C0E016E000E086E94EF04F00350126E98
:10098800136A1350000AD8B4CCEF04F0EFEF04F068
:100998001250000AD8B47CEF04F0010AD8B486EFEC
:1009A80004F0030AD8B48EEF04F0010AD8B49AEF21
:1009B80004F0070AD8B4A2EF04F0010AD8B4AAEFE9
:1009C80004F0030AD8B4B2EF04F0010AD8B4BAEFBD
:1009D80004F0EFEF04F0000E146E1AEF04F007EFC6
:1009E80004F006009EA4FBEF04F0FDEF04F031EFE5
:1009F80005F09DA402EF05F004EF05F031EF05F0D6
:100A08000850D8A40AEF05F00CEF05F023EF05F025
:100A1800010E146E0350D8B414EF05F016EF05F06C
:100A28001EEF05F00304D8A41CEF05F01EEF05F037
:100A380020EF05F0BE68BF688B7030EF05F0080640
:100A48000850D8A42AEF05F02CEF05F030EF05F098
:100A580001C0BEFF02C0BFFF9E9415921100C60ED2
:100A6800F66E0A0EF76E000EF86E00EE01F010EE4C
:100A780007F00900F5CFEEFFE550E150FAE10D6A05
:100A88000C6A0B6A0A6A096A086A15901592000EC0
:100A9800F86E000109EF04F0800ECD6E000EB16E05
:100AA80010C00EF011C00FF05BEC05F012000B0E39
:100AB800BD6E0EC0BEFF0FC0BFFF9D841200180B95
:050AC8000730060108E3
:040ACE00CD801200C5
:020000040020DA
:08000000FFFFFFFFFFFFFFFF00
:020000040030CA
:0E000000FF061F1EFF8181FF0FC00FE00F40A3
:00000001FF
