:020000040000FA
:0400000007EF00F016
:0A0008007F82D2ED0DF02DEF0FF016
:1010000000496E69742073756363657373210047CB
:10101000616D6520626567756E2100526573756C40
:10102000743A00253375733A2533756D733A253359
:0510300075757300005E
:1010360094840F0EC112938093869590000E816E54
:10104600000E826E000E836ECAEC0BF0010E056E6A
:10105600010E84EC0EF0000E646E6450010F5E6E9D
:101066005EC0F6FF100EF76E0800F550DFEC0EF0CE
:10107600642A0C0E6464F1D78C80660E5F6E760E61
:101086005E6EC10EE82EFED75E2EFCD75F2EFAD717
:1010960000F08C9004EC10F0010E056E010E84EC4D
:1010A6000EF033EC10F02DEC10F027EC10F0000EE3
:1010B600816E000E826E000E836E81A0FED7000E3A
:1010C6006C6E000E6D6E000E6E6E000E6F6ECD8035
:1010D600F28CF28E000E656E65500F0F5E6E5EC06E
:1010E600F6FF100EF76E0800F550DFEC0EF0652ADD
:1010F6000A0E6564F1D7330E5F6EBB0E5E6EE00EB0
:10110600E82EFED75E2EFCD75F2EFAD704EC10F041
:10111600660E5F6E760E5E6EC10EE82EFED75E2EF2
:10112600FCD75F2EFAD700F08C807650D8B4FDD766
:1011360068C00AF069C00BF06AC00CF06BC00DF015
:10114600800E0E6E960E0F6E980E106E000E116EBD
:1011560051EC0DF00AC098F00BC099F0800E056EA8
:10116600960E066E980E076E000E086E68C001F0A9
:1011760069C002F06AC003F06BC004F051EC0EF0D7
:1011860001C00AF002C00BF003C00CF004C00DF061
:10119600100E0E6E270E0F6E000E106E000E116EE4
:1011A60051EC0DF00AC096F00BC097F0800E056E5C
:1011B600960E066E980E076E000E086E68C001F059
:1011C60069C002F06AC003F06BC004F051EC0EF087
:1011D60001C060F002C061F003C062F004C063F0B9
:1011E600100E056E270E066E000E076E000E086EB8
:1011F60060C001F061C002F062C003F063C004F099
:1012060051EC0EF001C00AF002C00BF0000E0D6E9C
:101216000A0E0C6EB6EC0EF00AC094F00BC095F0F8
:10122600BB0E4E6E230E4F6E98C050F099C051F013
:1012360096C052F097C053F094C054F095C055F044
:1012460092EC0FF0010E056E010E84EC0EF0000E0E
:10125600666E66501B0F5E6E5EC0F6FF100EF76E72
:101266000800F550DFEC0EF0662A060E6664F1D72C
:10127600010E056E020E84EC0EF0000E676E6750CE
:10128600BB0FD96EDA6ADF50DFEC0EF0672A0F0E5D
:101296006764F5D7990E5F6E310E5E6EA20EE82E6C
:1012A600FED75E2EFCD75F2EFAD700D0660E5F6E95
:1012B600760E5E6EC10EE82EFED75E2EFCD75F2E32
:1012C600FAD700F08C90000E6C6E000E6D6E000E5C
:1012D6006E6E000E6F6E04EC10F0000E766EEDD69C
:1012E6003A50D96EDA6ADFCFF6FF100EF76E0800B5
:1012F600F550250AD8A4C9D03A50D96EDA6ADF2A41
:10130600000E716E000E706E70C074F071C075F0D4
:10131600726873683A50D96EDA6ADFCFF6FF100E3C
:10132600F76E0800F5502A0AD8A418D03A50D96E9C
:10133600DA6ADF2A3B50D96EDA6A020EDF26DF5CF4
:10134600D96EDA6ADECF70F0DECF71F071AE38D0CA
:101356007480706C711ED8B0712A32D03A50D96E32
:10136600DA6ADF50086E2CEC0BF008C070F009C08A
:1013760071F004D03A50D96EDA6ADF2AD00E3C6E8C
:10138600FF0E3D6E3A50D96EDA6ADFCFF6FF100EC9
:10139600F76E0800F5503E6E3F6A3C503E263D50C3
:1013A6003F223F5006E10A0E3E5CD8B002D0010E45
:1013B60001D0000E486E496A48504910D8A4DAD7C1
:1013C6003A50D96EDA6ADFCFF6FF100EF76E0800D4
:1013D600F550750AD8A433D03A50D96EDA6ADF2AA6
:1013E6003B50D96EDA6ADF50DF2ADF2AD96EDA6A15
:1013F600DECF3CF0DDCF3DF03CC040F03DC041F0DB
:10140600426A436A446A456A466A476A39C01AF0BC
:1014160040C01BF041C01CF042C01DF043C01EF08E
:1014260044C01FF045C020F046C021F047C022F05E
:101436005CEC0AF01AC039F01BC03AF012003A50C0
:10144600D96EDA6ADFCFF6FF100EF76E0800F55098
:10145600250AD8A411D03A50D96EDA6ADF2A000ECE
:10146600026E250E016E39C003F092EC0DF0000EEF
:101476003A6E010E396E12003A50D96EDA6ADF2AD8
:10148600000E3A6E000E396E12003A50D96EDA6AC4
:10149600DFCFF6FF100EF76E0800F550016E026AF8
:1014A60039C003F092EC0DF03A50D96EDA6ADF2AB1
:1014B600DED773AE749273BE05D0735008E1720422
:1014C600D8B005D0000E2C6E010E2B6E04D072C063
:1014D6002BF073C02CF070C02DF071C02EF01BC025
:1014E6002FF01CC030F01DC031F01EC032F01FC0FE
:1014F60033F020C034F021C035F022C036F0000EA3
:10150600386E1F0E376E000E0001BA6F74D03706A4
:10151600D8A0380637509B0FD96EDA6A2FC001F073
:1015260030C002F031C003F032C004F033C005F021
:1015360034C006F035C007F036C008F00A0E096E52
:10154600000E0A6E000E0B6E000E0C6E000E0D6E77
:10155600000E0E6E000E0F6E000E106EA4EC0CF058
:1015660001C023F002C024F003C025F004C026F019
:1015760005C027F006C028F007C029F008C02AF0E9
:101586002350300FDF6E2B06D8A02C062D06D8A0D0
:101596002E062FC001F030C002F031C003F032C079
:1015A60004F033C005F034C006F035C007F036C08D
:1015B60008F00A0E096E000E0A6E000E0B6E000E83
:1015C6000C6E000E0D6E000E0E6E000E0F6E000EEF
:1015D600106E3DEC0CF001C02FF002C030F003C0DD
:1015E60031F004C032F005C033F006C034F007C055
:1015F60035F008C036F037503810D8B41AD02F500E
:101606003010311032103310341035103610D8A483
:101616007ED72CBE05D02C5002E12B04D8B077D74C
:101626002EBE07D02E5003E12D04D8A002D074B2EE
:101636006ED71AC00EF037509B0F0F6E2DC010F0EC
:101646002EC011F012EC0EF00EC01AF00FC01BF0F7
:101656001200000E166E000E156E000E0F6E000EB6
:101666000E6E01D0082A010E146E08C0F6FF100E89
:10167600F76E0800F550200AD8B418D0F70E0A6E97
:10168600FF0E0B6E08C0F6FF100EF76E0800F55041
:101696000C6E0D6A0A500C260B500D220D5004E1FB
:1016A600050E0C5CD8A002D0000E146E14C010F00B
:1016B600116A10501110D8B407D0D4D7000E0F6E8F
:1016C600010E0E6E082A2ED008C0F6FF100EF76E19
:1016D6000800F5500A6E0B6A0B50000AD8A422D0F7
:1016E6000A502B0AD8B4EED7060AD8B4E7D71AD0D0
:1016F60015C001F016C002F0000E046E0A0E036E4D
:10170600F1EC0FF008C0F6FF100EF76E0800F5506A
:10171600015E000E025A300E0124156E000E0220E4
:10172600166ED0D7D00E0A6EFF0E0B6E08C0F6FFEF
:10173600100EF76E0800F5500C6E0D6A0A500C2656
:101746000B500D220D5006E10A0E0C5CD8B002D0EB
:10175600010E01D0000E126E136A12501310D8A497
:10176600C7D70E500F10D8A40DD015C00AF016C05A
:101776000BF00A1E0B1E0A4A0B2A0AC008F00BC001
:1017860009F0120015C008F016C009F01200000E8C
:10179600826E000E836EFC0E94169592F00E9512D4
:1017A600CB0E066EEC0E056E840EE82EFED7052EC9
:1017B600FCD7062EFAD700D0CB0E066EEC0E056EC1
:1017C600840EE82EFED7052EFCD7062EFAD700D0BB
:1017D600660E066E760E056EC10EE82EFED7052E37
:1017E600FCD7062EFAD700F0060E066E130E056E0F
:1017F600AE0EE82EFED7052EFCD7062EFAD7300EF3
:1018060006EC0FF0410E056EEE0EE82EFED7052E05
:10181600FCD700D0300E06EC0FF0D60E00D000D06C
:10182600E82EFCD700D0300E06EC0FF0280E06ECA2
:101836000FF00E0E06EC0FF0010E06EC0FF0060E82
:1018460006EC0FF0060E066E130E056EAE0EE82EB3
:10185600FED7052EFCD7062EFAD7000E7A6E000E9E
:10186600796E010E786E060E7C6E0E0E7E6E280E5A
:101876007B6E120020EE11F0070EDE6AE806FDE22E
:1018860009500A100B100C100D100E100F1010102E
:10189600D8B446D0010E196E0AD0D89009360A3649
:1018A6000B360C360D360E360F361036192A10AE9C
:1018B600F4D7D89011361236133614361536163636
:1018C600173618360950015C0A5002580B50035857
:1018D6000C5004580D5005580E5006580F50075816
:1018E60010500858D8A011D00950015E0A50025A6B
:1018F6000B50035A0C50045A0D50055A0E50065AF6
:101906000F50075A1050085A1180D89010320F32D3
:101916000E320D320C320B320A320932192EC9D769
:1019260011C001F012C002F013C003F014C004F09D
:1019360015C005F016C006F017C007F018C008F06D
:10194600120009500A100B100C100D100E100F107B
:101956001010D8B43CD0010E116E0AD0D8900936BA
:101966000A360B360C360D360E360F361036112A61
:1019760010AEF4D70950015C0A5002580B500358B8
:101986000C5004580D5005580E5006580F50075865
:1019960010500858D8A010D00950015E0A50025ABB
:1019A6000B50035A0C50045A0D50055A0E50065A45
:1019B6000F50075A1050085AD89010320F320E3274
:1019C6000D320C320B320A320932112ED3D701C036
:1019D60001F002C002F003C003F004C004F005C029
:1019E60005F006C006F007C007F008C008F01200B0
:1019F60040D08C92060EE82EFED700D08C82060EC2
:101A0600E82EFED700D08C92060EE82EFED700D028
:101A160012008C92030EE82EFED700F08C82030E85
:101A2600E82EFED700F08C92C80E00D0E82EFDD727
:101A360012008C92060EE82EFED700D08C82060E7F
:101A4600E82EFED700D08C92060EE82EFED700D0E8
:101A560012008C92060EE82EFED700D08C82060E5F
:101A6600E82EFED700D08C92060EE82EFED700D0C8
:101A760012007A50016E026A0250000AD8A41200BF
:101A86000150000AD8B4B5D7010AD8B4C2D7030AA0
:101A9600D8B4CFD7010AD8A41200DBD7000E126E35
:101AA600000E136E000E146E000E156E0E500F1003
:101AB60010101110D8B42AD0010E166E06D0D89088
:101AC6000E360F3610361136162A11AEF8D7D890C4
:101AD60012361336143615360E500A5C0F500B5854
:101AE60010500C5811500D58D8A009D00E500A5E4F
:101AF6000F500B5A10500C5A11500D5A1280D89094
:101B0600113210320F320E32162EE1D712C00AF001
:101B160013C00BF014C00CF015C00DF012000350EA
:101B2600D8B403D00350D8A404D0015039EC10F037
:101B360012000350D96EDA6A030ED926DE50DE1083
:101B4600D8B414D00350D96EDA6A030ED9260350DE
:101B5600E16EE26A010EE126DE50E65CE650800A9E
:101B6600086EDE50800A0858D8B012000350D96EAD
:101B7600DA6A010ED926DF50046E0350D96EDA6A8E
:101B8600DF500424D96EDA6A01C0DFFF0350D96E34
:101B9600DA6A010ED926DE2A000EDD2212000600C0
:101BA6009EB09DA009D0000E6C26000E6D22010E7F
:101BB6006E22000E6F229E909EB49DA41DD0BE5034
:101BC6006C2400018A6FBF506D208B6F000E6E2053
:101BD6008C6F000E6F208D6F8E518A5D686E8F51EF
:101BE6008B59696E90518C596A6E91518D596B6EF5
:101BF600010E766ECD909E94A1B0A0A00ED0BB50E3
:101C06006C2400018E6FBC506D208F6F000E6E200D
:101C1600906F000E6F20916FA1907F92110074A0BB
:101C260006D00FC009F00EC00AF0ADEC0FF011BEE1
:101C360005D010C015F011C016F004D0000E166EB7
:101C4600000E156E000E146E000E136E0AD0000EF6
:101C5600026E200E016E0EC003F092EC0DF0134AD8
:101C6600142A1550135C1450800A126E1650800AFE
:101C76001258D8A0ECD774B006D00FC009F00EC029
:101C86000AF0ADEC0FF00FC001F016EC10F0155095
:101C960001240E6E165002200F6E1200055006101B
:101CA60007100810D8B424D0010E096E06D0D890BB
:101CB6000536063607360836092A08AEF8D705501F
:101CC600015C065002580750035808500458D8A023
:101CD60008D00550015E0650025A0750035A0850B4
:101CE600045AD8900832073206320532092EE7D751
:101CF60001C001F002C002F003C003F004C004F00A
:101D06001200076E030E07601200200E056401D054
:101D160012000704D8A405D0100E056002D00504F1
:101D260012D0020E0718D8A406D0100E056003D0F4
:101D360005503F0F08D00704D8A41200100E056402
:101D4600120005502F0F066E7950D8A405D0065004
:101D5600800906EC0FF004D006508009DDEC0FF088
:101D660006C09AF01200000E0F6E000E0E6E0C509A
:101D76000D10D8B41CD0010E106E04D0D8900C36BD
:101D86000D36102A0DAEFAD7D8900E360F360C50F7
:101D96000A5C0D500B58D8A005D00C500A5E0D50A9
:101DA6000B5A0E80D8900D320C32102EEDD70EC085
:101DB6000AF00FC00BF01200046EFC0E94169592FA
:101DC6000F0E95168B808B9204C003F0F00E03164F
:101DD60083500F0B0310836EFBEC0CF004C003F072
:101DE600033AF00E0316F00E031683500F0B031082
:101DF600836EFBEC0CF0820E036EDE0EE82EFED731
:101E0600032EFCD71200046EFC0E941695920F0E4C
:101E160095168B908B9204C003F0F00E0316835038
:101E26000F0B0310836EFBEC0CF004C003F0033AB7
:101E3600F00E0316F00E031683500F0B0310836E7D
:101E4600FBEC0CF0820E036EDE0EE82EFED7032EA0
:101E5600FCD712006E0EF66E200EF76E000EF86EB0
:101E660000EE7BF010EE04F00900F5CFEEFFE55032
:101E7600E150FAE100EE80F0550EEE6AE806FDE16B
:101E860000EE68F0130EEE6AE806FDE17F907F92A1
:101E9600000EF86E00011BEF08F04BC04DF0000E6F
:101EA6000001936F000E926F0DD04AC039F04D0EAF
:101EB6003A6E4CC03BF073EC09F0395000019227A2
:101EC6003A5093234DC0F6FF100EF76E0800F550FA
:101ED6000009D8A4EAD792C04AF093C04BF012008A
:101EE600010E076E200E01180210D8B414D0F70E9A
:101EF600036EFF0E046E01C005F002C006F003502B
:101F0600052604500622065004E1050E055CD8A0FD
:101F160002D0000E076E07C001F0026A1200500ED2
:101F2600586E4EC059F0000E5B6E000E5A6E000ED3
:101F36005D6E000E5C6E590E4A6E4FC04BF0580E29
:101F46004C6E50EC0FF04E505A24D96EDA6A000EE1
:101F5600DF6E1200000E0D6E000E0C6E09D00BC067
:101F660001F0026A0AC003F092EC0DF00C4A0D2A49
:101F760009500C24D96EDA6ADF500B6E0B50D8B4B8
:101F86001200EDD7D00E036EFF0E046E01C005F0F1
:101F960002C006F00350052604500622065006E14C
:101FA6000A0E055CD8B002D0010E01D0000E016EFB
:101FB600026A1200046EFC0E94169592000E956E3F
:101FC6008B908B9204C083FFFBEC0CF0820E036EA9
:101FD600DE0EE82EFED7032EFCD7120001500302B8
:101FE600F3CF05F0F4CF06F001500402F3500626B5
:101FF60002500302F350062605C001F006C002F0A7
:1020060012007950D8A404D0010E06EC0FF003D0CC
:10201600010EDDEC0FF0820E056EDE0EE82EFED709
:10202600052EFCD7120001C003F001D0012A015091
:10203600D96EDA6ADF50D8A4F9D70350015C016E75
:10204600026A01BE02061200050EBA6EB70EB1167E
:10205600A0801200050EBD6EB70EB1169D8412004B
:0E206600800ECD6E9D80120030060108120023
:020000040020DA
:08000000FFFFFFFFFFFFFFFF00
:020000040030CA
:0E000000FF061F1EFF8081FF0FC00FE00F40A4
:00000001FF
