:020000040000FA
:0408000007EF04F00A
:100808001582F2ED04F030EF05F094900F0EC1124E
:100818009368000E816E7F0E126E11684DEC05F024
:1008280064EC05F09D84F28CF28E000E016E01508E
:10083800D8B421EF04F023EF04F01BEF04F081A0FB
:1008480028EF04F02AEF04F02EEF04F0000E0A6EF1
:10085800C3EF04F081A233EF04F035EF04F039EF71
:1008680004F0010E0A6EC3EF04F081A43EEF04F019
:1008780040EF04F044EF04F0020E0A6EC3EF04F0F8
:1008880081A649EF04F04BEF04F04FEF04F0030E9C
:100898000A6EC3EF04F081A854EF04F056EF04F099
:1008A8005AEF04F0040E0A6EC3EF04F081AA5FEF5A
:1008B80004F061EF04F065EF04F0050E0A6EC3EF73
:1008C80004F081AC6AEF04F06CEF04F070EF04F010
:1008D800060E0A6EC3EF04F081AE75EF04F077EFF1
:1008E80004F07BEF04F0070E0A6EC3EF04F0C3EFC9
:1008F80004F0C60E096E3A0E086E020E026EBE684D
:10090800BF6819EF04F0630E096E1D0E086E010E24
:10091800026E83EF04F0B10E096E8E0E086E000EA3
:10092800026E08C0BEFF09C0BFFF19EF04F0580EE1
:10093800096EC70E086E000E026E95EF04F02C0EBD
:10094800096E630E086E000E026E95EF04F0160E27
:10095800096E310E086E000E026E95EF04F00B0E54
:10096800096E180E086E000E026E95EF04F0050E63
:10097800096E8C0E086E000E026E95EF04F00A5098
:10098800136E146A1450000AD8B4CDEF04F019EFAE
:1009980004F01350000AD8B47DEF04F0010AD8B46B
:1009A80087EF04F0030AD8B48FEF04F0010AD8B433
:1009B8009BEF04F0070AD8B4A3EF04F0010AD8B4F7
:1009C800ABEF04F0030AD8B4B3EF04F0010AD8B4CB
:1009D800BBEF04F019EF04F007EF04F006009EA443
:1009E800F8EF04F0FAEF04F02EEF05F09DA4FFEF06
:1009F80004F001EF05F02EEF05F00250D8A407EF40
:100A080005F009EF05F020EF05F0010E016E0A5020
:100A1800D8B411EF05F013EF05F01BEF05F00A0449
:100A2800D8A419EF05F01BEF05F01DEF05F0BE681F
:100A3800BF688B702DEF05F002060250D8A427EF8F
:100A480005F029EF05F02DEF05F008C0BEFF09C03D
:100A5800BFFF9E9415921100C00EF66E0A0EF76E37
:100A6800000EF86E00EE08F010EE07F00900F5CF62
:100A7800EEFFE550E150FAE100EE01F0070EEE6AF4
:100A8800E806FDE115901592000EF86E000109EFD9
:100A980004F0800ECD6E000EB16E11C00FF012C0C2
:100AA80010F058EC05F012000B0EBD6E0FC0BEFF23
:0F0AB80010C0BFFF9D841200180B073006010805
:040AC800CD801200CB
:020000040020DA
:08000000FFFFFFFFFFFFFFFF00
:020000040030CA
:0E000000FF061F1EFF8181FF0FC00FE00F40A3
:00000001FF
