:020000040000FA
:0408000007EF04F00A
:0A0808007F82C0ED11F087EF11F0C0
:1010000000496E69742073756363657373210047CB
:10101000616D6520626567756E2100526573756C40
:10102000743A00252D3375733A252D33756D733A57
:10103000252D33757573000094840F0EC1129380B3
:101040009590000E816E000E826E000E836E10EC85
:101050000EF0010E056E010E50EC0FF0000E0001B7
:10106000AA6F010EAA25F66EF76A100EF722080085
:10107000F55076EC12F00001AA2B0C0EAA6543EF96
:1010800008F045EF08F031EF08F08C80660E6F6EC7
:10109000760E6E6EC10EE82EFED76E2EFCD76F2E2A
:1010A000FAD700F08C903CEC13F0010E056E010EA7
:1010B00050EC0FF020EEE5F010EE80F00F0EDBCFDD
:1010C000E3FFE806FCE220EED5F010EE90F00F0E04
:1010D000DBCFE3FFE806FCE2800E0D6E000E0E6E25
:1010E000D05010EC11F001C00FF002C010F068EC0D
:1010F00013F0900E0D6E000E0E6EFC5010EC11F001
:1011000001C00FF002C010F068EC13F0010E056E84
:10111000010E50EC0FF0000E0001AB6F800EAB25FE
:10112000D96EDA6A000EDA22DF5076EC12F0000196
:10113000AB2B0D0EAB659FEF08F0A1EF08F08EEF23
:1011400008F0010E056E020E50EC0FF0000E0001CB
:10115000AC6F900EAC25D96EDA6A000EDA22DF5041
:1011600076EC12F00001AC2B0F0EAC65BAEF08F074
:10117000BCEF08F0A9EF08F081A0C1EF08F0C3EFC1
:1011800008F0BCEF08F03CEC13F0010E056E010E08
:1011900050EC0FF0660E6F6E760E6E6EC10EE82E7E
:1011A000FED76E2EFCD76F2EFAD700F0A4EC13F00A
:1011B0009EEC13F0000E816E000E826E000E836EA8
:1011C00081A0E5EF08F0E7EF08F0E0EF08F0000E8F
:1011D0000001B46F000EB56F000EB66F000EB76F52
:1011E000A9EC13F0F28CF28E000E0001AD6F0F0E21
:1011F000AD25F66EF76A100EF7220800F55076EC72
:1012000012F00001AD2B0A0EAD6509EF09F00BEFEE
:1012100009F0F7EF08F0330E6F6EBB0E6E6EE00E46
:10122000E82EFED76E2EFCD76F2EFAD73CEC13F0CB
:10123000660E6F6E760E6E6EC10EE82EFED76E2EA7
:10124000FCD76F2EFAD700F0660E6F6E760E6E6EBC
:10125000C10EE82EFED76E2EFCD76F2EFAD700F007
:101260008C800001BA51D8B438EF09F03AEF09F098
:1012700031EF09F0B4C00AF0B5C00BF0B6C00CF005
:10128000B7C00DF0800E0E6E960E0F6E980E106E9B
:10129000000E116E7AEC10F00AC0A4F00BC0A5F09D
:1012A000800E056E960E066E980E076E000E086E86
:1012B000B4C001F0B5C002F0B6C003F0B7C004F08E
:1012C000CCEC10F001C00AF002C00BF003C00CF02F
:1012D00004C00DF0100E0E6E270E0F6E000E106E75
:1012E000000E116E7AEC10F00AC0A6F00BC0A7F049
:1012F000800E056E960E066E980E076E000E086E36
:10130000B4C001F0B5C002F0B6C003F0B7C004F03D
:10131000CCEC10F001C0A0F002C0A1F003C0A2F01C
:1013200004C0A3F0100E056E270E066E000E076EA9
:10133000000E086EA0C001F0A1C002F0A2C003F030
:10134000A3C004F0CCEC10F001C00AF002C00BF016
:10135000000E0D6E0A0E0C6E4DEC11F00AC0A8F0D6
:101360000BC0A9F0BB0E5A6E000E5B6E230E5C6EB6
:10137000100E5D6EA4C05EF0A5C05FF0A6C060F068
:10138000A7C061F0A8C062F0A9C063F04FEC12F0F2
:10139000010E056E010E50EC0FF0000E0001AE6F55
:1013A000060EAE65D6EF09F0D8EF09F0DAEF09F0D6
:1013B000E8EF09F01B0EAE25F66EF76A100EF72265
:1013C0000800F55076EC12F00001AE2BD0EF09F0DA
:1013D000010E056E020E50EC0FF0000E0001AF6F13
:1013E0000F0EAF65F6EF09F0F8EF09F0FAEF09F02C
:1013F00007EF0AF0BB0EAF25D96EDA6A000EDA22CB
:10140000DF5076EC12F00001AF2BF0EF09F0990EEF
:101410006F6E310E6E6EA20EE82EFED76E2EFCD7CA
:101420006F2EFAD700D0660E6F6E760E6E6EC10EFE
:10143000E82EFED76E2EFCD76F2EFAD700F08C90D8
:101440003CEC13F0000E0001BA6FABEC13F0F29C11
:10145000F29EE0EF08F007EF04F03EC0D9FF3FC076
:10146000DAFFDECFF6FFDDCFF7FF0800F550250AE3
:10147000D8A43DEF0AF03FEF0AF0B4EF0BF03EC006
:10148000D9FF3FC0DAFFDE2A000EDD22000E716EAA
:10149000000E706E70C074F071C075F07268736881
:1014A000000E4F6E000E4E6E9CEF0AF074803EC030
:1014B000D9FF3FC0DAFFDE2A000EDD229CEF0AF0E2
:1014C000748257EF0AF0748457EF0AF0748657EF6E
:1014D0000AF0748857EF0AF0000E4F6E010E4E6E40
:1014E0009CEF0AF03EC0D9FF3FC0DAFFDECFF6FF27
:1014F000DDCFF7FF0800F550426E436A4350000A03
:10150000D8B485EF0AF06CEF0AF04250200AD8B444
:1015100066EF0AF0030AD8B469EF0AF0080AD8B4F3
:1015200063EF0AF0060AD8B456EF0AF01D0AD8B4E1
:1015300060EF0AF06CEF0AF04E504F10D8B4A3EFF2
:101540000AF0A5EF0AF072EF0AF074A0AAEF0AF011
:10155000ACEF0AF0ADEF0AF074923EC0D9FF3FC085
:10156000DAFFDECFF6FFDDCFF7FF0800F5502A0ADD
:10157000D8A4BDEF0AF0BFEF0AF0E8EF0AF03EC0D2
:10158000D9FF3FC0DAFFDE2A000EDD2240C0D9FFBE
:1015900041C0DAFFDFCF42F0020EDE26DFCF43F09C
:1015A000000EDD2242C0D9FF43C0DAFFDECF70F06B
:1015B000DDCF71F071BEE1EF0AF0DFEF0AF02BEF43
:1015C0000BF07480706C711ED8B0712A2BEF0BF089
:1015D0003EC0D9FF3FC0DAFFDECF08F0DDCF09F013
:1015E000D0EC0CF008C070F009C071F0FFEF0AF009
:1015F0003EC0D9FF3FC0DAFFDE2A000EDD22D00E4A
:10160000426EFF0E436E3EC0D9FF3FC0DAFFDECF11
:10161000F6FFDDCFF7FF0800F550446E456A4250F3
:1016200044264350452245500AE10A0E445CD8A0A6
:101630001CEF0BF01FEF0BF0010E20EF0BF0000E74
:10164000506E516A50505110D8A429EF0BF02BEF77
:101650000BF0F8EF0AF03EC0D9FF3FC0DAFFDECF53
:10166000F6FFDDCFF7FF0800F550750AD8A43BEF71
:101670000BF03DEF0BF07EEF0BF03EC0D9FF3FC00B
:10168000DAFFDE2A000EDD2240C0D9FF41C0DAFFBA
:10169000DFCF42F0020EDE26DFCF43F0000EDD2268
:1016A00042C0D9FF43C0DAFFDECF44F0DDCF45F0C2
:1016B00044C046F045C047F0486A496A4A6A4B6AE6
:1016C0004C6A4D6A3CC01CF03DC01DF046C01EF087
:1016D00047C01FF048C020F049C021F04AC022F0A6
:1016E0004BC023F04CC024F04DC025F0D0EC0BF0E3
:1016F0001CC03CF01DC03DF0CFEF0BF03EC0D9FF49
:101700003FC0DAFFDECFF6FFDDCFF7FF0800F55070
:10171000250AD8A48EEF0BF090EF0BF0A7EF0BF09B
:101720003EC0D9FF3FC0DAFFDE2A000EDD22000EE8
:10173000026E250E016E3CC003F03DC004F0EBECE0
:101740000EF0000E3D6E010E3C6ECFEF0BF03EC072
:10175000D9FF3FC0DAFFDE2A000EDD22000E3D6E0B
:10176000000E3C6ECFEF0BF03EC0D9FF3FC0DAFF5A
:10177000DECFF6FFDDCFF7FF0800F550016E026AFD
:101780003CC003F03DC004F0EBEC0EF03EC0D9FFCE
:101790003FC0DAFFDE2A000EDD22A1EF0BF01200BF
:1017A00073BED5EF0BF0D7EF0BF0D8EF0BF07492C0
:1017B00073BEE5EF0BF0735006E17204D8B0E3EFAF
:1017C0000BF0E5EF0BF0EBEF0BF0000E2F6E010EC0
:1017D0002E6EEFEF0BF072C02EF073C02FF070C0C2
:1017E00030F071C031F01EC032F01FC033F020C0A5
:1017F00034F021C035F022C036F023C037F024C0C9
:1018000038F025C039F0000E3B6E1F0E3A6E000E08
:1018100001011F6F82EF0CF03A06D8A03B06000EC4
:101820003A24D96E010E3B20DA6E32C001F033C08B
:1018300002F034C003F035C004F036C005F037C004
:1018400006F038C007F039C008F00A0E096E000E25
:101850000A6E000E0B6E000E0C6E000E0D6E000E6A
:101860000E6E000E0F6E000E106E83EC0EF001C0B7
:1018700026F002C027F003C028F004C029F005C0FC
:101880002AF006C02BF007C02CF008C02DF026501F
:10189000300FDF6E2E06D8A02F063006D8A03106F6
:1018A00032C001F033C002F034C003F035C004F0A0
:1018B00036C005F037C006F038C007F039C008F070
:1018C0000A0E096E000E0A6E000E0B6E000E0C6EF4
:1018D000000E0D6E000E0E6E000E0F6E000E106EDE
:1018E00098EC0DF001C032F002C033F003C034F0C8
:1018F00004C035F005C036F006C037F007C038F038
:1019000008C039F03A503B10D8B489EF0CF08BEF97
:101910000CF0BBEF0CF03250331034103510361091
:10192000371038103910D8A498EF0CF09AEF0CF05B
:101930000CEF0CF02FBEA7EF0CF02F5006E12E0499
:10194000D8B0A5EF0CF0A7EF0CF00CEF0CF031BE07
:10195000B2EF0CF0315008E13004D8A0B2EF0CF037
:10196000B4EF0CF0BBEF0CF074B2B9EF0CF0BBEFBE
:101970000CF00CEF0CF01CC011F01DC012F0000EAA
:101980003A24136E010E3B20146E30C015F031C0A6
:1019900016F019EC10F011C01CF012C01DF012006E
:1019A000000E166E000E156E000E0F6E000E0E6EFF
:1019B000DCEF0CF0084A092A010E146E08C0F6FF8D
:1019C00009C0F7FF0800F550200AD8B4EAEF0CF080
:1019D000ECEF0CF009EF0DF0F70E0A6EFF0E0B6E38
:1019E00008C0F6FF09C0F7FF0800F5500C6E0D6A3D
:1019F0000A500C260B500D220D5009E1050E0C5C0F
:101A0000D8A005EF0DF007EF0DF009EF0DF0000E77
:101A1000146E14C010F0116A10501110D8A413EFF6
:101A20000DF015EF0DF0DAEF0CF01FEF0DF0000EDA
:101A30000F6E010E0E6E084A092A54EF0DF008C011
:101A4000F6FF09C0F7FF0800F5500A6E0B6A0B504D
:101A5000000AD8B42EEF0DF054EF0DF00A502B0A07
:101A6000D8B41BEF0DF0060AD8B417EF0DF054EF01
:101A70000DF015C001F016C002F0000E046E0A0E43
:101A8000036E7BEC13F008C0F6FF09C0F7FF0800F7
:101A9000F550015E000E025A300E0124156E000E44
:101AA0000220166E1BEF0DF0D00E0A6EFF0E0B6EAD
:101AB00008C0F6FF09C0F7FF0800F5500C6E0D6A6C
:101AC0000A500C260B500D220D500AE10A0E0C5C38
:101AD000D8A06DEF0DF070EF0DF0010E71EF0DF06D
:101AE000000E126E136A12501310D8A47AEF0DF084
:101AF0007CEF0DF039EF0DF00E500F10D8A483EFEE
:101B00000DF085EF0DF093EF0DF015C00AF016C043
:101B10000BF00A1E0B1E0A4A0B2A0AC008F00BC063
:101B200009F097EF0DF015C008F016C009F012008B
:101B300020EE11F0070EDE6AE806FDE209500A10F9
:101B40000B100C100D100E100F101010D8B4ABEFBE
:101B50000DF0ADEF0DF0FFEF0DF0010E196EBBEFC4
:101B60000DF0D89009360A360B360C360D360E3687
:101B70000F361036192A10AEC0EF0DF0C2EF0DF07F
:101B8000B1EF0DF0D89011361236133614361536E3
:101B90001636173618360950015C0A5002580B5099
:101BA00003580C5004580D5005580E5006580F504D
:101BB000075810500858D8A0E0EF0DF0E2EF0DF0F4
:101BC000F3EF0DF00950015E0A50025A0B50035A10
:101BD0000C50045A0D50055A0E50065A0F50075A11
:101BE0001050085A1180D89010320F320E320D3238
:101BF0000C320B320A320932192EC2EF0DF011C02D
:101C000001F012C002F013C003F014C004F015C0BC
:101C100005F016C006F017C007F018C008F0120053
:101C2000000E826E000E836EFC0E94169592F00EDE
:101C30009512CB0E066EEC0E056E840EE82EFED7C6
:101C4000052EFCD7062EFAD700D0CB0E066EEC0E72
:101C5000056E840EE82EFED7052EFCD7062EFAD789
:101C600000D0660E066E760E056EC10EE82EFED70B
:101C7000052EFCD7062EFAD700F0060E066E130EC0
:101C8000056EAE0EE82EFED7052EFCD7062EFAD72F
:101C9000300E9DEC12F0410E056EEE0EE82EFED7D2
:101CA000052EFCD700D0300E9DEC12F0D60E00D0E1
:101CB00000D0E82EFCD700D0300E9DEC12F0280E9C
:101CC0009DEC12F00E0E9DEC12F0010E9DEC12F048
:101CD000060E9DEC12F0060E066E130E056EAE0E8D
:101CE000E82EFED7052EFCD7062EFAD7000E7A6E08
:101CF000000E796E010E786E060E7C6E0E0E7E6EF4
:101D0000280E7B6E120009500A100B100C100D10DB
:101D10000E100F101010D8B490EF0EF092EF0EF0DE
:101D2000DAEF0EF0010E116EA0EF0EF0D89009362A
:101D30000A360B360C360D360E360F361036112A93
:101D400010AEA5EF0EF0A7EF0EF096EF0EF00950D3
:101D5000015C0A5002580B5003580C5004580D50A7
:101D600005580E5006580F50075810500858D8A064
:101D7000BCEF0EF0BEEF0EF0CEEF0EF00950015E9C
:101D80000A50025A0B50035A0C50045A0D50055A6F
:101D90000E50065A0F50075A1050085AD890103259
:101DA0000F320E320D320C320B320A320932112E42
:101DB000A7EF0EF001C001F002C002F003C003F073
:101DC00004C004F005C005F006C006F007C007F027
:101DD00008C008F0120003500410D8B4F2EF0EF05F
:101DE000F4EF0EF0FDEF0EF003500410D8A4FBEF5B
:101DF0000EF0FDEF0EF002EF0FF00150ADEC13F01E
:101E00004FEF0FF020EE04F00350D9260450DA22F1
:101E1000DE50DE10D8B40FEF0FF011EF0FF02CEF03
:101E20000FF020EE04F00350D9260450DA2210EE11
:101E300002F00350E1260450E222DE50E65CE65058
:101E4000800A096EDE50800A0958D8B02AEF0FF0D8
:101E50002CEF0FF04FEF0FF020EE02F00350D926D9
:101E60000450DA22DECF05F0DDCF06F003C0D9FF43
:101E700004C0DAFFDECF07F0DDCF08F005500724FD
:101E8000D96E06500820DA6E01C0DFFF20EE02F0A6
:101E90000350D9260450DA22DE2A000EDD22120079
:101EA000076E030E076057EF0FF059EF0FF0B4EF16
:101EB0000FF0200E05645FEF0FF061EF0FF063EF9E
:101EC0000FF0B4EF0FF00704D8A469EF0FF06BEF39
:101ED0000FF077EF0FF0100E056071EF0FF073EF5A
:101EE0000FF077EF0FF00504066EA0EF0FF0020E73
:101EF0000718D8A47EEF0FF080EF0FF08DEF0FF0F2
:101F0000100E056086EF0FF088EF0FF08DEF0FF0E9
:101F100005503F0F066EA0EF0FF00704D8A493EF13
:101F20000FF095EF0FF0B4EF0FF0100E05649BEF7C
:101F30000FF09DEF0FF0B4EF0FF005502F0F066E6E
:101F40007950D8A4A6EF0FF0A8EF0FF0AEEF0FF086
:101F5000065080099DEC12F0B2EF0FF00650800998
:101F600054EC13F006C076F01200FBEF0FF08C92E9
:101F7000060EE82EFED700D08C82060EE82EFED785
:101F800000D08C92060EE82EFED700D018EF10F08D
:101F90008C92030EE82EFED700F08C82030EE82E02
:101FA000FED700F08C92C80E00D0E82EFDD718EFB7
:101FB00010F08C92060EE82EFED700D08C82060E12
:101FC000E82EFED700D08C92060EE82EFED700D069
:101FD00018EF10F08C92060EE82EFED700D08C82FF
:101FE000060EE82EFED700D08C92060EE82EFED705
:101FF00000D018EF10F07A50016E026A0250000A09
:10200000D8B405EF10F018EF10F00150000AD8B462
:10201000B7EF0FF0010AD8B4C8EF0FF0030AD8B435
:10202000D9EF0FF0010AD8B4EAEF0FF018EF10F073
:10203000120074A01EEF10F020EF10F02AEF10F045
:1020400013C00AF014C00BF011C00CF012C00DF058
:10205000C4EC12F016BE2FEF10F031EF10F037EF96
:1020600010F015C01AF016C01BF03BEF10F0000E78
:102070001B6E000E1A6E000E196E000E186E4DEFDC
:1020800010F0000E026E200E016E11C003F012C09F
:1020900004F0EBEC0EF0184A192A1A50185C19508B
:1020A000800A176E1B50800A1758D8A05AEF10F0FC
:1020B0005CEF10F041EF10F074B061EF10F063EFDF
:1020C00010F06DEF10F013C00AF014C00BF011C047
:1020D0000CF012C00DF0C4EC12F013C001F014C0EB
:1020E00002F021EC13F01A500124116E1B50022053
:1020F000126E1200000E126E000E136E000E146EA1
:10210000000E156E0E500F1010101110D8B48BEF7A
:1021100010F08DEF10F0C3EF10F0010E166E97EF78
:1021200010F0D8900E360F3610361136162A11AE32
:102130009CEF10F09EEF10F091EF10F0D890123657
:102140001336143615360E500A5C0F500B581050CB
:102150000C5811500D58D8A0B0EF10F0B2EF10F09D
:10216000BBEF10F00E500A5E0F500B5A10500C5A75
:1021700011500D5A1280D890113210320F320E3297
:10218000162E9EEF10F012C00AF013C00BF014C010
:102190000CF015C00DF012000550061007100810C5
:1021A000D8B4D5EF10F0D7EF10F007EF11F0010E13
:1021B000096EE1EF10F0D89005360636073608367E
:1021C000092A08AEE6EF10F0E8EF10F0DBEF10F0B0
:1021D0000550015C06500258075003580850045837
:1021E000D8A0F5EF10F0F7EF10F0FFEF10F005506A
:1021F000015E0650025A0750035A0850045AD890FC
:102200000832073206320532092EE8EF10F001C01D
:1022100001F002C002F003C003F004C004F0120099
:10222000056E000E086E08500708036E010E046E5E
:10223000032A1DEF11F0D8900436032E1BEF11F086
:10224000045005140009D8A428EF11F02AEF11F06A
:1022500030EF11F0000E076E300E066E34EF11F005
:10226000000E076E310E066ECC0E0824D96EDA6AA7
:10227000000EDA2206C0DFFF082A070E086443EFCB
:1022800011F045EF11F013EF11F0000E0001D46FC3
:10229000CC0E016E000E026E1200000E0F6E000ECC
:1022A0000E6E0C500D10D8B458EF11F05AEF11F01B
:1022B00082EF11F0010E106E62EF11F0D8900C3623
:1022C0000D36102A0DAE67EF11F069EF11F05EEFD9
:1022D00011F0D8900E360F360C500A5C0D500B588A
:1022E000D8A075EF11F077EF11F07CEF11F00C50E2
:1022F0000A5E0D500B5A0E80D8900D320C32102E03
:1023000069EF11F00EC00AF00FC00BF012001C0EA6
:10231000F66E270EF76E000EF86E00EED5F010EE9A
:1023200020F00900F5CFEEFFE550E150FAE14E0E46
:10233000F66E270EF76E000EF86E00EE7BF010EED4
:1023400004F00900F5CFEEFFE550E150FAE101EEAF
:1023500000F0200EEE6AE806FDE100EEB0F0250E7A
:10236000EE6AE806FDE100EE70F00B0EEE6AE8069C
:10237000FDE17F907F92000EF86E00011CEF08F0E7
:1023800006009EA0C6EF11F0C8EF11F0D9EF11F0D2
:102390009DA0CDEF11F0CFEF11F0D9EF11F0000EAD
:1023A0000001B427000EB523010EB623000EB7239B
:1023B0009E909EA4DEEF11F0E0EF11F0F3EF11F02C
:1023C0009DA4E5EF11F0E7EF11F0F3EF11F0BE502F
:1023D0000001B427BF50B523000EB623000EB7236B
:1023E000010EBA6F9E947F92110054C058F055C0F0
:1023F00059F0000E0001B96F000EB86F13EF12F024
:1024000052C03CF053C03DF0580E3E6E000E3F6E81
:1024100056C040F057C041F02DEC0AF03C5000018E
:10242000B8273D50B92358C0F6FF59C0F7FF080040
:10243000F5500009D8A41FEF12F021EF12F000EFC1
:1024400012F0B8C052F0B9C053F01200010E076E7E
:10245000200E01180210D8B430EF12F032EF12F053
:102460004BEF12F0F70E036EFF0E046E01C005F085
:1024700002C006F00350052604500622065009E16A
:10248000050E055CD8A047EF12F049EF12F04BEFB4
:1024900012F0000E076E07C001F0026A12005E0E15
:1024A000666E000E676E5AC068F05BC069F0000E81
:1024B0006B6E000E6A6E000E6D6E000E6C6E680E16
:1024C000526E000E536E5CC054F05DC055F0660E47
:1024D000566E000E576EF5EC11F06A505A24D96E04
:1024E0006B505B20DA6E000EDF6E1200046EFC0E85
:1024F000941695920F0E95168B808B9204C003F064
:10250000F00E031683500F0B0310836EB5EC0FF023
:1025100004C003F0033AF00E0316F00E03168350C6
:102520000F0B0310836EB5EC0FF0820E036EDE0E00
:10253000E82EFED7032EFCD71200046EFC0E941674
:1025400095920F0E95168B908B9204C003F0F00EAF
:10255000031683500F0B0310836EB5EC0FF004C00D
:1025600003F0033AF00E0316F00E031683500F0B20
:102570000310836EB5EC0FF0820E036EDE0EE82EB4
:10258000FED7032EFCD71200000E106E000E0F6E49
:10259000D5EF12F00EC001F0026A0CC003F00DC0BE
:1025A00004F0EBEC0EF00F4A102A0F500A24D96EFB
:1025B00010500B20DA6EDF500E6E0E50D8A4E3EFF1
:1025C00012F0E5EF12F0CAEF12F0120007C009F0A6
:1025D00008C00AF005C00BF006C00CF009C0D9FF16
:1025E0000AC0DAFF094A0A2A0BC0E1FF0CC0E2FF69
:1025F0000B4A0C2ADFCFE7FFE750D8A402EF13F015
:1026000004EF13F0EEEF12F01200D00E036EFF0E87
:10261000046E01C005F002C006F003500526045008
:10262000062206500AE10A0E055CD8A01AEF13F044
:102630001DEF13F0010E1EEF13F0000E016E026A83
:10264000120001C003F002C004F029EF13F0014AA8
:10265000022A01C0D9FF02C0DAFFDF50D8A433EF4D
:1026600013F035EF13F027EF13F00350015C016E08
:1026700004500258026E12007950D8A442EF13F0B1
:1026800044EF13F049EF13F0010E9DEC12F04CEF04
:1026900013F0010E54EC13F0820E056EDE0EE82EE0
:1026A000FED7052EFCD71200046EFC0E94169592F0
:1026B000000E956E8B908B9204C083FFB5EC0FF0EB
:1026C000820E036EDE0EE82EFED7032EFCD712001C
:1026D0000DC001F00EC002F021EC13F001500D24EA
:1026E000056E02500E20066E0FC007F010C008F0F5
:1026F000E6EC12F0120001500302F3CF05F0F4CF24
:1027000006F001500402F350062602500302F35073
:10271000062605C001F006C002F0120053544B50CB
:1027200054523A20000000000000000052434F4E77
:102730003A2000000000000000000000050EBD6E01
:10274000B70EB1169D841200800ECD6E12003006B9
:0C2750000108CD801200CD901200120094
:020000040020DA
:08000000FFFFFFFFFFFFFFFF00
:020000040030CA
:0E000000FF061F1EFF8181FF0FC00FE00F40A3
:00000001FF
