:020000040000FA
:0408000007EF04F00A
:0A0808007582CFED10F0CFEF11F074
:1010000000496E69742073756363657373210047CB
:10101000616D6520626567756E2100526573756C40
:10102000743A00252D3375733A252D33756D733A57
:10103000252D33757573000094840F0EC1129380B3
:101040009590000E816E000E826E000E836E12EC83
:101050000EF0010E096E010E53EC0FF0000E0101AF
:101060002A6F010E2A25F66EF76A100EF722080085
:10107000F55084EC12F001012A2B0C0E2A6543EF87
:1010800008F045EF08F031EF08F08C80660E696ECD
:10109000760E686EC10EE82EFED7682EFCD7692E3C
:1010A000FAD700F08C904AEC13F0010E096E010E95
:1010B00053EC0FF020EEB6F011EE00F00F0EDBCF88
:1010C000E3FFE806FCE220EEA6F011EE10F00F0EB2
:1010D000DBCFE3FFE806FCE2000E116E010E126E9C
:1010E000D05058EC11F005C013F006C014F076ECA7
:1010F00013F0100E116E010E126EFC5058EC11F030
:1011000005C013F006C014F076EC13F0010E096E62
:10111000010E53EC0FF0000E01012B6F000E2B257A
:10112000D96EDA6A010EDA22DF5084EC12F0010186
:101130002B2B0D0E2B659FEF08F0A1EF08F08EEF23
:1011400008F0010E096E020E53EC0FF0000E0101C3
:101150002C6F100E2C25D96EDA6A010EDA22DF50C0
:1011600084EC12F001012C2B0F0E2C65BAEF08F065
:10117000BCEF08F0A9EF08F0D082D08081A0C3EFC7
:1011800008F0C5EF08F0BEEF08F04AEC13F0010ECE
:10119000096E010E53EC0FF0660E696E760E686EE6
:1011A000C10EE82EFED7682EFCD7692EFAD700F0C4
:1011B000B4EC13F0AEEC13F0000E816E000E826EF4
:1011C000000E836E81A0E7EF08F0E9EF08F0E2EF90
:1011D00008F0000E0001846F000E856F000E866F10
:1011E000000E876FB7EC13F0F28CF28E000E010147
:1011F0002D6F0F0E2D25F66EF76A100EF7220800E0
:10120000F55084EC12F001012D2B0A0E2D650BEF29
:1012100009F00DEF09F0F9EF08F0330E696EBB0E1F
:10122000686EE00EE82EFED7682EFCD7692EFAD73E
:101230004AEC13F0660E696E760E686EC10EE82EEB
:10124000FED7682EFCD7692EFAD700F0660E696EBD
:10125000760E686EC10EE82EFED7682EFCD7692E7A
:10126000FAD700F08C8000018A51D8B43AEF09F027
:101270003CEF09F033EF09F084C00EF085C00FF0A9
:1012800086C010F087C011F0800E126E960E136E9D
:10129000980E146E000E156E7DEC10F00EC024F149
:1012A0000FC025F1800E096E960E0A6E980E0B6E19
:1012B000000E0C6E84C005F085C006F086C007F0F5
:1012C00087C008F014EC11F005C00EF006C00FF056
:1012D00007C010F008C011F0100E126E270E136E2A
:1012E000000E146E000E156E7DEC10F00EC026F18F
:1012F0000FC027F1800E096E960E0A6E980E0B6EC7
:10130000000E0C6E84C005F085C006F086C007F0A4
:1013100087C008F014EC11F005C020F106C021F1DF
:1013200007C022F108C023F1100E096E270E0A6EC5
:10133000000E0B6E000E0C6E20C105F021C106F0F0
:1013400022C107F023C108F014EC11F005C00EF023
:1013500006C00FF0000E116E0A0E106E95EC11F023
:101360000EC028F10FC029F18C0E5E6E000E5F6E6C
:10137000230E606E100E616E24C162F025C163F011
:1013800026C164F027C165F028C166F029C167F065
:1013900032EC12F0010E096E010E53EC0FF0000E4C
:1013A00001012E6F060E2E65D8EF09F0DAEF09F075
:1013B000DCEF09F0EAEF09F01B0E2E25F66EF76A56
:1013C000100EF7220800F55084EC12F001012E2BCC
:1013D000D2EF09F0010E096E020E53EC0FF0000E71
:1013E00001012F6F0F0E2F65F8EF09F0FAEF09F0EA
:1013F000FCEF09F009EF0AF08C0E2F25D96EDA6A9E
:10140000000EDA22DF5084EC12F001012F2BF2EFF4
:1014100009F0990E696E310E686EA20EE82EFED7A5
:10142000682EFCD7692EFAD700D0660E696E760E4C
:10143000686EC10EE82EFED7682EFCD7692EFAD74B
:1014400000F08C904AEC13F0000E00018A6FB9ECAA
:1014500013F0F29CF29EE2EF08F007EF04F042C0B6
:10146000D9FF43C0DAFFDECFF6FFDDCFF7FF08007C
:10147000F550250AD8A43FEF0AF041EF0AF0B6EF85
:101480000BF042C0D9FF43C0DAFFDE2A000EDD2296
:10149000000E6B6E000E6A6E6AC06EF06BC06FF06D
:1014A0006C686D68000E536E000E526E9EEF0AF06F
:1014B0006E8042C0D9FF43C0DAFFDE2A000EDD2273
:1014C0009EEF0AF06E8259EF0AF06E8459EF0AF02F
:1014D0006E8659EF0AF06E8859EF0AF0000E536ECF
:1014E000010E526E9EEF0AF042C0D9FF43C0DAFFF0
:1014F000DECFF6FFDDCFF7FF0800F550466E476AF6
:101500004750000AD8B487EF0AF06EEF0AF0465051
:10151000200AD8B468EF0AF0030AD8B46BEF0AF0D7
:10152000080AD8B465EF0AF0060AD8B458EF0AF0F2
:101530001D0AD8B462EF0AF06EEF0AF05250531051
:10154000D8B4A5EF0AF0A7EF0AF074EF0AF06EA086
:10155000ACEF0AF0AEEF0AF0AFEF0AF06E9242C0C5
:10156000D9FF43C0DAFFDECFF6FFDDCFF7FF08007B
:10157000F5502A0AD8A4BFEF0AF0C1EF0AF0EAEF4B
:101580000AF042C0D9FF43C0DAFFDE2A000EDD2296
:1015900044C0D9FF45C0DAFFDFCF46F0020EDE2699
:1015A000DFCF47F0000EDD2246C0D9FF47C0DAFF8B
:1015B000DECF6AF0DDCF6BF06BBEE3EF0AF0E1EF58
:1015C0000AF02DEF0BF06E806A6C6B1ED8B06B2AA0
:1015D0002DEF0BF042C0D9FF43C0DAFFDECF0CF095
:1015E000DDCF0DF0D2EC0CF00CC06AF00DC06BF04A
:1015F00001EF0BF042C0D9FF43C0DAFFDE2A000E34
:10160000DD22D00E466EFF0E476E42C0D9FF43C0AA
:10161000DAFFDECFF6FFDDCFF7FF0800F550486EAA
:10162000496A465048264750492249500AE10A0E65
:10163000485CD8A01EEF0BF021EF0BF0010E22EF5B
:101640000BF0000E546E556A54505510D8A42BEF71
:101650000BF02DEF0BF0FAEF0AF042C0D9FF43C0B8
:10166000DAFFDECFF6FFDDCFF7FF0800F550750A91
:10167000D8A43DEF0BF03FEF0BF080EF0BF042C032
:10168000D9FF43C0DAFFDE2A000EDD2244C0D9FFB5
:1016900045C0DAFFDFCF46F0020EDE26DFCF47F08F
:1016A000000EDD2246C0D9FF47C0DAFFDECF48F08A
:1016B000DDCF49F048C04AF049C04BF04C6A4D6A52
:1016C0004E6A4F6A506A516A40C020F041C021F012
:1016D0004AC022F04BC023F04CC024F04DC025F08E
:1016E0004EC026F04FC027F050C028F051C029F05E
:1016F000D2EC0BF020C040F021C041F0D1EF0BF054
:1017000042C0D9FF43C0DAFFDECFF6FFDDCFF7FFDF
:101710000800F550250AD8A490EF0BF092EF0BF0DB
:10172000A9EF0BF042C0D9FF43C0DAFFDE2A000E5A
:10173000DD22000E066E250E056E40C007F041C08A
:1017400008F0EEEC0EF0000E416E010E406ED1EF8F
:101750000BF042C0D9FF43C0DAFFDE2A000EDD22C3
:10176000000E416E000E406ED1EF0BF042C0D9FF6B
:1017700043C0DAFFDECFF6FFDDCFF7FF0800F550FC
:10178000056E066A40C007F041C008F0EEEC0EF0AE
:1017900042C0D9FF43C0DAFFDE2A000EDD22A3EFEC
:1017A0000BF012006DBED7EF0BF0D9EF0BF0DAEFB4
:1017B0000BF06E926DBEE7EF0BF06D5006E16C041E
:1017C000D8B0E5EF0BF0E7EF0BF0EDEF0BF0000E0C
:1017D000336E010E326EF1EF0BF06CC032F06DC063
:1017E00033F06AC034F06BC035F022C036F023C04D
:1017F00037F024C038F025C039F026C03AF027C0B1
:101800003BF028C03CF029C03DF0000E3F6E1F0E9B
:101810003E6E000E01014F6F84EF0CF03E06D8A023
:101820003F06300E3E24D96E010E3F20DA6E36C0E0
:1018300005F037C006F038C007F039C008F03AC0EC
:1018400009F03BC00AF03CC00BF03DC00CF00A0EA2
:101850000D6E000E0E6E000E0F6E000E106E000E5E
:10186000116E000E126E000E136E000E146E86ECDA
:101870000EF005C02AF006C02BF007C02CF008C0FF
:101880002DF009C02EF00AC02FF00BC030F00CC0B4
:1018900031F02A50300FDF6E3206D8A033063406FE
:1018A000D8A0350636C005F037C006F038C007F0BE
:1018B00039C008F03AC009F03BC00AF03CC00BF058
:1018C0003DC00CF00A0E0D6E000E0E6E000E0F6E77
:1018D000000E106E000E116E000E126E000E136ED2
:1018E000000E146E9AEC0DF005C036F006C037F00D
:1018F00007C038F008C039F009C03AF00AC03BF020
:101900000BC03CF00CC03DF03E503F10D8B48BEF04
:101910000CF08DEF0CF0BDEF0CF036503710381096
:1019200039103A103B103C103D10D8A49AEF0CF03F
:101930009CEF0CF00EEF0CF033BEA9EF0CF033501F
:1019400006E13204D8B0A7EF0CF0A9EF0CF00EEFCF
:101950000CF035BEB4EF0CF0355008E13404D8A0DB
:10196000B4EF0CF0B6EF0CF0BDEF0CF06EB2BBEFC5
:101970000CF0BDEF0CF00EEF0CF020C015F021C004
:1019800016F0300E3E24176E010E3F20186E34C044
:1019900019F035C01AF01CEC10F015C020F016C07C
:1019A00021F01200000E1A6E000E196E000E136E5A
:1019B000000E126EDEEF0CF00C4A0D2A010E186EAE
:1019C0000CC0F6FF0DC0F7FF0800F550200AD8B490
:1019D000ECEF0CF0EEEF0CF00BEF0DF0F70E0E6EDF
:1019E000FF0E0F6E0CC0F6FF0DC0F7FF0800F5509C
:1019F000106E116A0E5010260F501122115009E17D
:101A0000050E105CD8A007EF0DF009EF0DF00BEFFD
:101A10000DF0000E186E18C014F0156A1450151051
:101A2000D8A415EF0DF017EF0DF0DCEF0CF021EF5F
:101A30000DF0000E136E010E126E0C4A0D2A56EFB9
:101A40000DF00CC0F6FF0DC0F7FF0800F5500E6E4C
:101A50000F6A0F50000AD8B430EF0DF056EF0DF0BA
:101A60000E502B0AD8B41DEF0DF0060AD8B419EFAA
:101A70000DF056EF0DF019C005F01AC006F0000E7B
:101A8000086E0A0E076E89EC13F00CC0F6FF0DC04D
:101A9000F7FF0800F550055E000E065A300E0524CB
:101AA000196E000E06201A6E1DEF0DF0D00E0E6E90
:101AB000FF0E0F6E0CC0F6FF0DC0F7FF0800F550CB
:101AC000106E116A0E5010260F50112211500AE1AB
:101AD0000A0E105CD8A06FEF0DF072EF0DF0010E42
:101AE00073EF0DF0000E166E176A16501710D8A47B
:101AF0007CEF0DF07EEF0DF03BEF0DF01250131068
:101B0000D8A485EF0DF087EF0DF095EF0DF019C01B
:101B10000EF01AC00FF00E1E0F1E0E4A0F2A0EC036
:101B20000CF00FC00DF099EF0DF019C00CF01AC0B9
:101B30000DF0120020EE15F0070EDE6AE806FDE259
:101B40000D500E100F101010111012101310141051
:101B5000D8B4ADEF0DF0AFEF0DF001EF0EF0010EC8
:101B60001D6EBDEF0DF0D8900D360E360F361036C7
:101B700011361236133614361D2A14AEC2EF0DF08C
:101B8000C4EF0DF0B3EF0DF0D890153616361736BA
:101B9000183619361A361B361C360D50055C0E5099
:101BA00006580F5007581050085811500958125035
:101BB0000A5813500B5814500C58D8A0E2EF0DF0EF
:101BC000E4EF0DF0F5EF0DF00D50055E0E50065AE6
:101BD0000F50075A1050085A1150095A12500A5AF9
:101BE00013500B5A14500C5A1580D89014321332DB
:101BF0001232113210320F320E320D321D2EC4EF5E
:101C00000DF015C005F016C006F017C007F018C09B
:101C100008F019C009F01AC00AF01BC00BF01CC074
:101C20000CF01200000E826E000E836EFC0E9416F5
:101C30009592F00E9512CB0E0A6EEC0E096E840E84
:101C4000E82EFED7092EFCD70A2EFAD700D0CB0EED
:101C50000A6EEC0E096E840EE82EFED7092EFCD714
:101C60000A2EFAD700D0660E0A6E760E096EC10EE5
:101C7000E82EFED7092EFCD70A2EFAD700F0060E62
:101C80000A6E130E096EAE0EE82EFED7092EFCD793
:101C90000A2EFAD7300EABEC12F0410E096EEE0EA2
:101CA000E82EFED7092EFCD700D0300EABEC12F098
:101CB000D60E00D000D0E82EFCD700D0300EABEC12
:101CC00012F0280EABEC12F00E0EABEC12F0010E7F
:101CD000ABEC12F0060EABEC12F0060E0A6E130E11
:101CE000096EAE0EE82EFED7092EFCD70A2EFAD7C3
:101CF000000E736E000E726E010E716E060E000104
:101D0000C76F0E0E746E280EC66F12000D500E10A7
:101D10000F1010101110121013101410D8B493EFEC
:101D20000EF095EF0EF0DDEF0EF0010E156EA3EF45
:101D30000EF0D8900D360E360F361036113612369C
:101D400013361436152A14AEA8EF0EF0AAEF0EF0D3
:101D500099EF0EF00D50055C0E5006580F500758C5
:101D6000105008581150095812500A5813500B5867
:101D700014500C58D8A0BFEF0EF0C1EF0EF0D1EF09
:101D80000EF00D50055E0E50065A0F50075A1050B7
:101D9000085A1150095A12500A5A13500B5A14502B
:101DA0000C5AD890143213321232113210320F32D0
:101DB0000E320D32152EAAEF0EF005C005F006C04A
:101DC00006F007C007F008C008F009C009F00AC013
:101DD0000AF00BC00BF00CC00CF0120007500810FA
:101DE000D8B4F5EF0EF0F7EF0EF000EF0FF007505C
:101DF0000810D8A4FEEF0EF000EF0FF005EF0FF083
:101E00000550BBEC13F052EF0FF020EE04F007503A
:101E1000D9260850DA22DE50DE10D8B412EF0FF0C7
:101E200014EF0FF02FEF0FF020EE04F00750D9263B
:101E30000850DA2210EE02F00750E1260850E222A4
:101E4000DE50E65CE650800A0D6EDE50800A0D58CA
:101E5000D8B02DEF0FF02FEF0FF052EF0FF020EE74
:101E600002F00750D9260850DA22DECF09F0DDCF84
:101E70000AF007C0D9FF08C0DAFFDECF0BF0DDCFD4
:101E80000CF009500B24D96E0A500C20DA6E05C0F4
:101E9000DFFF20EE02F00750D9260850DA22DE2AB2
:101EA000000EDD2212000B6E030E0B605AEF0FF0D6
:101EB0005CEF0FF0B7EF0FF0200E096462EF0FF048
:101EC00064EF0FF066EF0FF0B7EF0FF00B04D8A43C
:101ED0006CEF0FF06EEF0FF07AEF0FF0100E09605D
:101EE00074EF0FF076EF0FF07AEF0FF009040A6E3F
:101EF000A3EF0FF0020E0B18D8A481EF0FF083EFC1
:101F00000FF090EF0FF0100E096089EF0FF08BEFDC
:101F10000FF090EF0FF009503F0F0A6EA3EF0FF094
:101F20000B04D8A496EF0FF098EF0FF0B7EF0FF077
:101F3000100E09649EEF0FF0A0EF0FF0B7EF0FF057
:101F400009502F0F0A6E7250D8A4A9EF0FF0ABEF13
:101F50000FF0B1EF0FF00A508009ABEC12F0B5EFC3
:101F60000FF00A50800962EC13F00AC08BF01200E7
:101F7000FEEF0FF08C92060EE82EFED700D08C827A
:101F8000060EE82EFED700D08C92060EE82EFED765
:101F900000D01BEF10F08C92030EE82EFED700F05D
:101FA0008C82030EE82EFED700F08C92C80E00D073
:101FB000E82EFDD71BEF10F08C92060EE82EFED710
:101FC00000D08C82060EE82EFED700D08C92060E32
:101FD000E82EFED700D01BEF10F08C92060EE82EF4
:101FE000FED700D08C82060EE82EFED700D08C9251
:101FF000060EE82EFED700D01BEF10F07350056ED2
:10200000066A0650000AD8B408EF10F01BEF10F073
:102010000550000AD8B4BAEF0FF0010AD8B4CBEFDC
:102020000FF0030AD8B4DCEF0FF0010AD8B4EDEFDB
:102030000FF01BEF10F012006EA021EF10F023EF55
:1020400010F02DEF10F017C00EF018C00FF015C0F3
:1020500010F016C011F0D2EC12F01ABE32EF10F0F0
:1020600034EF10F03AEF10F019C01EF01AC01FF054
:102070003EEF10F0000E1F6E000E1E6E000E1D6E65
:10208000000E1C6E50EF10F0000E066E200E056E56
:1020900015C007F016C008F0EEEC0EF01C4A1D2A21
:1020A0001E501C5C1D50800A1B6E1F50800A1B585E
:1020B000D8A05DEF10F05FEF10F044EF10F06EB0BD
:1020C00064EF10F066EF10F070EF10F017C00EF034
:1020D00018C00FF015C010F016C011F0D2EC12F0BD
:1020E00017C005F018C006F02FEC13F01E500524A1
:1020F000156E1F500620166E1200000E166E000E92
:10210000176E000E186E000E196E12501310141078
:102110001510D8B48EEF10F090EF10F0C6EF10F05D
:10212000010E1A6E9AEF10F0D8901236133614364C
:1021300015361A2A15AE9FEF10F0A1EF10F094EFAC
:1021400010F0D890163617361836193612500E5C25
:1021500013500F581450105815501158D8A0B3EF01
:1021600010F0B5EF10F0BEEF10F012500E5E1350ED
:102170000F5A1450105A1550115A1680D890153213
:102180001432133212321A2EA1EF10F016C00EF0D4
:1021900017C00FF018C010F019C011F0120006009F
:1021A0009EA0D5EF10F0D7EF10F0E8EF10F09DA053
:1021B000DCEF10F0DEEF10F0E8EF10F0000E0001A1
:1021C0008427000E8523010E8623000E87239E9010
:1021D0009EA4EDEF10F0EFEF10F012EF11F09DA4C0
:1021E000F4EF10F0F6EF10F012EF11F0BE50000116
:1021F0008425016EBF508521026E000E8621036E7C
:10220000000E8721046E800E0124846F3C0E022094
:10221000856F360E0320866FFE0E0420876F010E39
:102220008A6F9E947592110009500A100B100C10C1
:10223000D8B41DEF11F01FEF11F04FEF11F0010EA8
:102240000D6E29EF11F0D89009360A360B360C3690
:102250000D2A0CAE2EEF11F030EF11F023EF11F03C
:102260000950055C0A5006580B5007580C50085886
:10227000D8A03DEF11F03FEF11F047EF11F00950FA
:10228000055E0A50065A0B50075A0C50085AD8904F
:102290000C320B320A3209320D2E30EF11F005C02C
:1022A00005F006C006F007C007F008C008F01200ED
:1022B000096E000E0C6E0C500708076E010E086EBA
:1022C000072A65EF11F0D8900836072E63EF11F05A
:1022D000085009140009D8A470EF11F072EF11F042
:1022E00078EF11F0000E0B6E300E0A6E7CEF11F0DD
:1022F000000E0B6E310E0A6E9D0E0C24D96EDA6A3A
:10230000000EDA220AC0DFFF0C2A070E0C648BEFE6
:1023100011F08DEF11F05BEF11F0000E0001A56FD1
:102320009D0E056E000E066E1200000E146E000E5D
:10233000136E10501110D8B4A0EF11F0A2EF11F0ED
:10234000CAEF11F0010E126EAAEF11F0D8901036FC
:102350001136122A11AEAFEF11F0B1EF11F0A6EF66
:1023600011F0D8901336143610500E5C11500F58DF
:10237000D8A0BDEF11F0BFEF11F0C4EF11F0105075
:102380000E5E11500F5A1380D89011321032122E57
:10239000B1EF11F013C00EF014C00FF01200380EA0
:1023A000F66E270EF76E000EF86E00EEA6F010EE39
:1023B00023F00900F5CFEEFFE550E150FAE1780E89
:1023C000F66E270EF76E000EF86E0900F5CF74F06A
:1023D00001EE30F0200EEE6AE806FDE100EE80F03E
:1023E000260EEE6AE806FDE100EE6AF00A0EEE6ADD
:1023F000E806FDE175907592000EF86E00011CEF85
:1024000008F058C05CF059C05DF0000E0001896F03
:10241000000E886F1FEF12F056C040F057C041F019
:102420005C0E426E000E436E5AC044F05BC045F035
:102430002FEC0AF0405000018827415089235CC0EE
:10244000F6FF5DC0F7FF0800F5500009D8A42BEF98
:1024500012F02DEF12F00CEF12F088C056F089C088
:1024600057F01200620E0001CB6F000ECC6F5EC001
:10247000CDF05FC0CEF0000ED06F000ECF6F000E1B
:10248000D26F000ED16FCD0E566E000E576E60C02B
:1024900058F061C059F0CB0E5A6E000E5B6E01EC25
:1024A00012F00001CF515E24D96ED0515F20DA6E58
:1024B000000EDF6E1200010E0B6E200E05180610C6
:1024C000D8B465EF12F067EF12F080EF12F0F70E5C
:1024D000076EFF0E086E05C009F006C00AF007502F
:1024E000092608500A220A5009E1050E095CD8A005
:1024F0007CEF12F07EEF12F080EF12F0000E0B6E08
:102500000BC005F0066A1200086EFC0E9416959238
:102510000F0E95168B808B9208C007F0F00E0716F1
:1025200083500F0B0710836EB8EC0FF008C007F054
:10253000073AF00E0716F00E071683500F0B071020
:10254000836EB8EC0FF0820E076EDE0EE82EFED71B
:10255000072EFCD71200086EFC0E941695920F0EF3
:1025600095168B908B9208C007F0F00E07168350DB
:102570000F0B0710836EB8EC0FF008C007F0073A96
:10258000F00E0716F00E071683500F0B0710836E20
:10259000B8EC0FF0820E076EDE0EE82EFED7072E87
:1025A000FCD71200000E146E000E136EE3EF12F053
:1025B00012C005F0066A10C007F011C008F0EEEC7A
:1025C0000EF0134A142A13500E24D96E14500F2003
:1025D000DA6EDF50126E1250D8A4F1EF12F0F3EF62
:1025E00012F0D8EF12F012000BC00DF00CC00EF07C
:1025F00009C00FF00AC010F00DC0D9FF0EC0DAFFFD
:102600000D4A0E2A0FC0E1FF10C0E2FF0F4A102A48
:10261000DFCFE7FFE750D8A410EF13F012EF13F06D
:10262000FCEF12F01200D00E076EFF0E086E05C010
:1026300009F006C00AF00750092608500A220A507D
:102640000AE10A0E095CD8A028EF13F02BEF13F073
:10265000010E2CEF13F0000E056E066A120005C085
:1026600007F006C008F037EF13F0054A062A05C048
:10267000D9FF06C0DAFFDF50D8A441EF13F043EFD3
:1026800013F035EF13F00750055C056E085006583F
:10269000066E12007250D8A450EF13F052EF13F0F0
:1026A00057EF13F0010EABEC12F05AEF13F0010EDE
:1026B00062EC13F0820E096EDE0EE82EFED7092EB4
:1026C000FCD71200086EFC0E94169592000E956EC3
:1026D0008B908B9208C083FFB8EC0FF0820E076ED0
:1026E000DE0EE82EFED7072EFCD7120011C005F033
:1026F00012C006F02FEC13F005501124096E06509D
:1027000012200A6E13C00BF014C00CF0F4EC12F09F
:10271000120005500702F3CF09F0F4CF0AF005507C
:102720000802F3500A2606500702F3500A2609C091
:1027300005F00AC006F0120053544B5054523A2090
:10274000000000000000000052434F4E3A200000FD
:0B275000000000000000000030060147
:10275C00050EBD6EB70EB1169D841200800ECD6EA7
:0D276C001200CD801200CD90120012000866
:020000040020DA
:08000000FFFFFFFFFFFFFFFF00
:020000040030CA
:0E000000FF061F1EFF8181FF0FC00FE00F40A3
:00000001FF
