:020000040000FA
:0408000007EF04F00A
:0A0808003A82A0ED0AF061EF0BF058
:1010000000496E6974207375636365737321000012
:1010100094840F0EC11293809590000E816E000E85
:10102000826ECFEC08F0010E096E010E41EC09F062
:10103000000E276E010E2724F66EF76A100EF722B7
:101040000800F55015EC0BF0272A0C0E27642BEF47
:1010500008F02DEF08F01AEF08F0660E1C6E760E01
:101060001B6EC10EE82EFED71B2EFCD71C2EFAD706
:1010700000F07EEC0BF0010E096E010E41EC09F060
:10108000ADEC0BF0A9EC0BF081A049EF08F04BEFB1
:1010900008F044EF08F0000E286E000E296E000ED6
:1010A0002A6E000E2B6EB2EC0BF0F28CF28E2C50EE
:1010B000D8B45DEF08F05FEF08F057EF08F028C0F4
:1010C0000EF029C00FF02AC010F02BC011F0800ED6
:1010D000126E960E136E980E146E000E156E0AECBC
:1010E0000AF0800E096E960E0A6E980E0B6E000EB8
:1010F0000C6E28C005F029C006F02AC007F02BC0EE
:1011000008F05CEC0AF005C00EF006C00FF007C056
:1011100010F008C011F0100E126E270E136E000EA4
:10112000146E000E156E0AEC0AF0800E096E960E13
:101130000A6E980E0B6E000E0C6E28C005F029C0CA
:1011400006F02AC007F02BC008F05CEC0AF005C0DE
:1011500023F006C024F007C025F008C026F0100ECA
:10116000096E270E0A6E000E0B6E000E0C6E23C069
:1011700005F024C006F025C007F026C008F05CEC9E
:101180000AF005C00EF006C00FF0000E116E0A0E38
:10119000106EDBEC0AF044EF08F007EF04F0000EED
:1011A000826E000E836EF80E9416F00E9512CB0E22
:1011B0000A6EEC0E096E840EE82EFED7092EFCD7BF
:1011C0000A2EFAD700D0CB0E0A6EEC0E096E840EF2
:1011D000E82EFED7092EFCD70A2EFAD700D0660ECD
:1011E0000A6E760E096EC10EE82EFED7092EFCD7C8
:1011F0000A2EFAD700F0060E0A6E130E096EAE0E16
:10120000E82EFED7092EFCD70A2EFAD7300E3BEC7B
:101210000BF0410E096EEE0EE82EFED7092EFCD71C
:1012200000D0300E3BEC0BF0D60E00D000D0E82EF4
:10123000FCD700D0300E3BEC0BF0280E3BEC0BF053
:101240000E0E3BEC0BF0010E3BEC0BF0060E3BECF4
:101250000BF0060E0A6E130E096EAE0EE82EFED7C8
:10126000092EFCD70A2EFAD7000E316E000E306E12
:10127000010E2F6E060E376E0E0E396E280E366E6C
:1012800012000B6E030E0B6048EF09F04AEF09F0F5
:10129000A5EF09F0200E096450EF09F052EF09F0B4
:1012A00054EF09F0A5EF09F00B04D8A45AEF09F0A8
:1012B0005CEF09F068EF09F0100E096062EF09F0C9
:1012C00064EF09F068EF09F009040A6E91EF09F084
:1012D000020E0B18D8A46FEF09F071EF09F07EEF42
:1012E00009F0100E096077EF09F079EF09F07EEF51
:1012F00009F009503F0F0A6E91EF09F00B04D8A4D2
:1013000084EF09F086EF09F0A5EF09F0100E0964EB
:101310008CEF09F08EEF09F0A5EF09F009502F0FBF
:101320000A6E3050D8A497EF09F099EF09F09FEFBB
:1013300009F00A5080093BEC0BF0A3EF09F00A50CA
:10134000800996EC0BF00AC02DF01200ECEF09F0CA
:101350008B94060EE82EFED700D08B84060EE82E66
:10136000FED700D08B94060EE82EFED700D009EFF2
:101370000AF08B94030EE82EFED700F08B84030E48
:10138000E82EFED700F08B94C80E00D0E82EFDD7D3
:1013900009EF0AF08B94060EE82EFED700D08B845E
:1013A000060EE82EFED700D08B94060EE82EFED750
:1013B00000D009EF0AF08B94060EE82EFED700D07D
:1013C0008B84060EE82EFED700D08B94060EE82EF6
:1013D000FED700D009EF0AF03150056E066A0650BC
:1013E000000AD8B4F6EF09F009EF0AF00550000A38
:1013F000D8B4A8EF09F0010AD8B4B9EF09F0030A8C
:10140000D8B4CAEF09F0010AD8B4DBEF09F009EF4C
:101410000AF01200000E166E000E176E000E186E07
:10142000000E196E1250131014101510D8B41BEFC3
:101430000AF01DEF0AF053EF0AF0010E1A6E27EFC3
:101440000AF0D89012361336143615361A2A15AE0D
:101450002CEF0AF02EEF0AF021EF0AF0D8901636A2
:1014600017361836193612500E5C13500F58145098
:10147000105815501158D8A040EF0AF042EF0AF06A
:101480004BEF0AF012500E5E13500F5A1450105AC0
:101490001550115A1680D890153214321332123268
:1014A0001A2E2EEF0AF016C00EF017C00FF018C05B
:1014B00010F019C011F0120009500A100B100C1096
:1014C000D8B465EF0AF067EF0AF097EF0AF0010E63
:1014D0000D6E71EF0AF0D89009360A360B360C36CD
:1014E0000D2A0CAE76EF0AF078EF0AF06BEF0AF0F7
:1014F0000950055C0A5006580B5007580C50085804
:10150000D8A085EF0AF087EF0AF08FEF0AF00950B4
:10151000055E0A50065A0B50075A0C50085AD890CC
:101520000C320B320A3209320D2E78EF0AF005C068
:1015300005F006C006F007C007F008C008F012006A
:1015400006009EA0A6EF0AF0A8EF0AF0B6EF0AF098
:101550009DA0ADEF0AF0AFEF0AF0B6EF0AF0010E72
:101560003226000E3322342235229E909EA4BBEFF9
:101570000AF0BDEF0AF0D9EF0AF09DA4C2EF0AF01D
:10158000C4EF0AF0D9EF0AF0BE50016EBF50026EF0
:10159000036A046A3250015C286E33500258296E87
:1015A000345003582A6E355004582B6E010E2C6EA1
:1015B0009E943A921100000E136E000E126E10509F
:1015C0001110D8B4E6EF0AF0E8EF0AF010EF0BF0D4
:1015D000010E146EF0EF0AF0D89010361136142A6E
:1015E00011AEF5EF0AF0F7EF0AF0ECEF0AF0D89041
:1015F0001236133610500E5C11500F58D8A003EF5E
:101600000BF005EF0BF00AEF0BF010500E5E1150CF
:101610000F5A1280D89011321032142EF7EF0AF0C0
:1016200012C00EF013C00FF01200086EF80E9416E0
:101630000F0E95168B808B9208C007F0F00E0716E0
:1016400083500F0B0710836EA6EC09F008C007F05B
:10165000073AF00E0716F00E071683500F0B07100F
:10166000836EA6EC09F0820E076EDE0EE82EFED722
:10167000072EFCD71200086EF80E94160F0E951662
:101680008B908B9208C007F0F00E071683500F0B5B
:101690000710836EA6EC09F008C007F0073AF00EB9
:1016A0000716F00E071683500F0B0710836EA6EC7B
:1016B00009F0820E076EDE0EE82EFED7072EFCD74D
:1016C0001200600EF66E170EF76E000EF86E00EE4A
:1016D00036F010EE04F00900F5CFEEFFE550E150D2
:1016E000FAE100EE28F00E0EEE6AE806FDE13A900F
:1016F0003A92000EF86E000108EF08F03050D8A4BE
:1017000084EF0BF086EF0BF08BEF0BF0010E3BEC50
:101710000BF08EEF0BF0010E96EC0BF0820E096EC3
:10172000DE0EE82EFED7092EFCD71200086EF80E4A
:101730009416000E956E8B908B9208C083FFA6ECDA
:1017400009F0820E076EDE0EE82EFED7072EFCD7BC
:101750001200050EBD6E9D841200800ECD6E12002B
:0817600030060108CD801200E3
:020000040020DA
:08000000FFFFFFFFFFFFFFFF00
:020000040030CA
:0E000000FF061F1EFF8181FF0FC00FE00F40A3
:00000001FF
