:0400000007EF00F016
:10000800128209ED00F0C2EF00F00600F3CF09F00C
:10001800F4CF0AF09EA213EF00F015EF00F07CEF8A
:1000280000F09DA21AEF00F01CEF00F07CEF00F04A
:10003800104A112A62EF00F0880E105C130E115856
:10004800D8A029EF00F02BEF00F07BEF00F0010EB5
:100058000F6E8B948B908B82000E116E000E106EBB
:100068007BEF00F0E80E105C030E1158D8A03FEFAC
:1000780000F041EF00F07BEF00F0000E0F6E8B9266
:100088008B948B80000E116E000E106E7BEF00F0CB
:100098000D50105C0E501158D8A055EF00F057EFD6
:1000A80000F07BEF00F0020E0F6E8B908B928B842A
:1000B800000E116E000E106E7BEF00F00F50076EF1
:1000C800086A0850000AD8B46CEF00F07BEF00F023
:1000D8000750000AD8B44CEF00F0010AD8B436EF44
:1000E80000F0030AD8B420EF00F07BEF00F09E92F6
:1000F8009EAC81EF00F083EF00F09DEF00F09DAC27
:1001080088EF00F08AEF00F09DEF00F0C3CF01F018
:10011800C4CF02F0000E046E0A0E036EF0EC00F07D
:10012800880E01240D6E130E02200E6EC3CF83FFBE
:100138009E9C0AC0F4FF09C0F3FF12921100F80E4A
:100148009416000E956E000E826E000E836E03EC00
:1001580001F0DAEC00F0F28CF28E1A0E0C6E5E0EE4
:100168000B6E6E0EE82EFED70B2EFCD70C2EFAD790
:1001780000D0C282B1EF00F007EF00F01E0EF66E5D
:10018800020EF76E000EF86E0900F5CF0DF00900AB
:10019800F5CF0EF00900F5CF0FF0116A106A129032
:1001A8001292000EF86E0001A3EF00F0C150F00BA0
:1001B8000A09C16EC30EC2169280CF0EC116C08E38
:1001C800C050C70B1009C06EC050F80B0609C06EAE
:1001D8009E9C9D8CC280120001500302F3CF05F053
:1001E800F4CF06F001500402F35006260250030231
:1001F800F350062605C001F006C002F01200CA50EE
:10020800FC0B0109CA6E480ECA12F90ECB6E9E92FB
:090218009D82CA841200881302C1
:020000040020DA
:08000000FFFFFFFFFFFFFFFF00
:020000040030CA
:0E000000FF061F1EFF8081FF0FC00FE00F40A4
:00000001FF
